:020000040800F2
:10000000A80700209D0100081B1C00085D1A0008BD
:10001000191C00083D0700088120000800000000AE
:100020000000000000000000000000001F1C00088D
:100030002D080008000000001D1C0008211C0008FD
:10004000B7010008B7010008B7010008B7010008B0
:10005000B7010008B7010008B7010008B7010008A0
:10006000B7010008B7010008B7010008B701000890
:1000700041070008B70100084D070008B701000854
:100080005907000865070008B7010008B701000814
:10009000B7010008B7010008B7010008B701000860
:1000A000B7010008B7010008B7010008B701000850
:1000B000B7010008B7010008B7010008B701000840
:1000C000B7010008B7010008B7010008B701000830
:1000D000B7010008512000085D20000869200008D1
:1000E000B7010008B7010008B7010008B701000810
:1000F000B7010008B7010008B7010008B701000800
:10010000B7010008B7010008B7010008B7010008EF
:10011000B7010008B7010008B7010008B7010008DF
:10012000B7010008B701000871070008B70100080F
:10013000B7010008B7010008B7010008B7010008BF
:10014000B7010008B7010008B7010008B7010008AF
:10015000B7010008B70100087D07000875200008F6
:10016000B7010008B7010008B7010008B70100088F
:10017000B7010008B7010008B7010008000000003F
:10018000B7010008B7010008DFF80CD000F0B2FAA0
:1001900000480047B1290008A8070020064880470A
:1001A00006480047FEE7FEE7FEE7FEE7FEE7FEE75C
:1001B000FEE7FEE7FEE7FEE7A91C0008890100084C
:1001C0002DE9F05F0546002092469B46884606468C
:1001D000814640241BE0284641464746224600F01F
:1001E000D6F853465A46C01A914110D311461846C4
:1001F000224600F0BDF82D1A67EB01084F46224653
:100200000120002100F0B4F817EB00094E41201E38
:10021000A4F10104DFDC484631462A464346BDE8E6
:10022000F09FD2B201E000F8012B491EFBD27047CB
:100230000022F6E710B513460A4604461946FFF7B2
:10024000F0FF204610BD2DE9FE4F81EA030404F0C3
:10025000004421F0004100944FF0000B23F00043D4
:1002600050EA01045ED052EA03045BD0C3F30A549F
:10027000C1F30A552C44A4F2F3340194A0FB0254B8
:10028000C1F3130141F48011C3F3130343F480134A
:1002900001FB024400FB034E840A970A44EA81549E
:1002A00047EA8357A4FB076802958D0A05FB07857B
:1002B0004FEA932C04FB0C542705029D4FEA065885
:1002C00047EA1637B5EB08056EEB070C870E920E62
:1002D00047EA811742EA8312A7FB0201B6EB0B0142
:1002E00064EB00042B0D43EA0C335E1844EB1C5006
:1002F000DA465146E7FB0201C5F313044FEA0B331C
:1003000043EA14534FEA0432019C43EA0603A4F182
:100310000C040294009CCDE900B400F057F803B03F
:10032000BDE8F08F00200146F9E70EB540F23341F9
:1003300002910021CDE900110A460B4600F046F873
:1003400003B000BD30B50B46014600202022012439
:1003500009E021FA02F59D4205D303FA02F5491B93
:1003600004FA02F52844151EA2F10102F1DC30BDA9
:10037000202A04DB203A00FA02F100207047914065
:10038000C2F1200320FA03F3194390407047202A5A
:1003900004DB203A21FA02F00021704721FA02F32F
:1003A000D040C2F12002914008431946704710B571
:1003B000141E73F1000408DA401C41F10001921888
:1003C0005B411A4301D120F0010010BD2DE9F04D31
:1003D00092469B4611B1B1FA81F202E0B0FA80F286
:1003E00020329046FFF7C4FF04460F4640EA0A0059
:1003F00041EA0B0153465A46084313D0114653EACB
:10040000010019D0C8F140025046FFF7C0FF054671
:100410000E46504659464246FFF7AAFF084305D00C
:10042000012004E020463946BDE8F08D0020054358
:1004300046EAE0762C4337430A986305E40AA0EBCA
:1004400008000022FD0A44EA47540A3002D5002081
:100450000146E9E7010510196941DDE90845001980
:100460006941BDE8F04DA2E72DE9FE4F804681EAE3
:100470000300C00F0C46009021F0004123F000451E
:10048000B8EB0200A94105D24046214690461C46E1
:100490000B46024623F00040104347D0270DC7F318
:1004A0000A00C3F30A510290401A019040286BDA07
:1004B000C3F3130040F4801B0098924620B1002340
:1004C000D2EB030A63EB0B0B01985946C0F14002D3
:1004D0005046FFF74DFF06460D4650465946019AD5
:1004E00000F01AF910EB08006141002487EA11526C
:1004F00084EAE7731A4340D0009A62B3019A012A52
:100500004FEA075215DC001B61EB02014FF000427D
:1005100002EA0752CDE90042001C41F58011324643
:100520002B46FFF753FF03B0BDE8F08F404621464E
:10053000F9E7001B61EB0201001C41F58013001874
:100540005B412018A2F5001747EB030140EAD57084
:10055000B6196D4111E06D084FEA360645EAC075DF
:100560004FEA0752001B61EB0201001C41F58011AC
:1005700049084FEA30000019514132462B4603B07A
:10058000BDE8F04FFFF713BF0098012240000023A1
:10059000D0EB020263EBE073009821464FEAE0746F
:1005A000B8EB000061EB0401E9E783F000435BE78F
:1005B00081F0004158E72DE9F04D81EA030404F091
:1005C000004B21F0004514464FF0000A23F0004193
:1005D00050EA050220D054EA01021DD0C5F30A57A3
:1005E0000246C5F31303C1F31300C1F30A5640F4E6
:1005F000801543F48013A7EB0608101BD64608F2BB
:10060000FD3873EB050002D308F1010801E09218F0
:100610005B41B8F1000F03DA00200146BDE8F08D20
:1006200000204FF48011064684460EE0171B73EB42
:10063000050705D3121B63EB050306434CEA010CC7
:1006400049084FEA300092185B4150EA0107EDD1AA
:1006500052EA030012D082EA040083EA050108434B
:1006600005D0101BAB4106D20122002306E0002278
:100670004FF0004302E06FF0010253101AEB060046
:100680004CEB085110EB0A0041EB0B01BDE8F04DBB
:10069000FFF78DBEC1F30A52C1F3130140F2FF33DD
:1006A00041F480119A4202DA00200146704740F27C
:1006B00033439A42A2F2334202DC5242FFF767BE52
:1006C000FFF756BE30B5041E71F1000404DB4FF095
:1006D0000044404264EB0101141E73F1000405DB89
:1006E0001C464FF00043524263EB0403994208BF9B
:1006F000904230BD064C074D06E0E06840F0010333
:1007000094E8070098471034AC42F6D3FFF740FD59
:10071000642B0008842B0008202A06DBCB17203A24
:1007200041FA02F043EAE07306E041FA02F3D040F6
:10073000C2F120029140084319467047FEE70000CD
:10074000014800F087B80000D0020020014800F006
:1007500081B8000030030020014800F07BB80000A1
:1007600010020020014800F075B80000700200205F
:10077000014800F06FB8000050010020014800F06F
:1007800069B80000B001002001681823CAB2103A0D
:10079000B2FBF3F2054B6FF30901032A9B5CC365BF
:1007A00000D9091D8165084670470000442B0008E8
:1007B00010B5014600208B698A6A4FF0C07453B1AE
:1007C000B3F5005F15D072B1012A0CD0022A0AD00D
:1007D000032A09D104E01AB1012A06D0022A03D162
:1007E000C96AC90100D5012010BDC96AA142FAD069
:1007F00010BD002AF7D0012AF2D0022AF3D0032A32
:10080000F3D010BD30B50468256825F48025256037
:10081000046863608368402B036803D099600068B4
:10082000C26030BD9A600068C16030BD70477047DB
:1008300090F83510022903D08021416501207047CE
:10084000052180F835100068016821F00101016080
:10085000002070472DE9F84304464FF00009CDF819
:10086000009063484FF41651A56D0068B0FBF1F796
:100870002E6894F85C10082000FA01F131420FD084
:1008800021680A6852070BD50A6822F004020A6040
:1008900094F85C108840A860606D40F001006065CD
:1008A00094F85C104FF0010808FA01F0304208D0CB
:1008B00021684969090604D5A860606D40F002000E
:1008C000606594F85C1004208840304208D02168AC
:1008D0000968890704D5A860606D40F00400606570
:1008E00094F85C1010208840304218D021680968C4
:1008F000090714D5A86020680168490304D5006879
:10090000000308D5A16C07E00168C90503D401689C
:1009100021F008010160216C09B12046884794F854
:100920005C1020208840304231D021680968C90617
:100930002DD5A86094F8350005282068016806D0F8
:10094000490347D5006800031DD4616C1CE021F009
:10095000160101602068416921F080014161206C2D
:1009600008B9A06C20B12068016821F0080101607D
:1009700094F85C103F208840A86084F8349084F894
:100980003580216D1FE0E16B09B120468847606D1D
:1009900000282BD0606DC00714D0052084F83500E6
:1009A0002068016821F0010101600098401C00905E
:1009B000B84203D820680068C007F6D184F83490A4
:1009C00084F83580E16C002910D001B02046BDE8E4
:1009D000F04308470168C905D5D4016821F010012A
:1009E000016084F8349084F83580CCE7BDE8F88362
:1009F000340000202DE9F041044600F079F9064664
:100A00005CB1002584F83450022084F83500206859
:100A1000016821F0010101600DE00120BDE8F081D5
:100A200000F066F9801B052805D9202060650320A9
:100A300084F83500F2E720680068C007F0D122682A
:100A4000116820480140D4E901031843D4E9033672
:100A50003343184363691843A3691843E369184390
:100A6000236A18430843616A042903D1D4E90B13AC
:100A700019430843106020684069666A20F0070146
:100A800030460E43012704280CD1A06A0643E06AD1
:100A900040B12046FFF78CFE20B14020606584F80D
:100AA0003570BAE7206846612046FFF76DFE94F87E
:100AB0005C203F2191408160656584F8357000209D
:100AC000ACE700003F8010F02DE9F0410446866D50
:100AD00090F83400002501280DD0012084F834005E
:100AE00094F835700020012F07D084F834000225D7
:100AF0002846BDE8F0810220FBE7022784F8357024
:100B000060652046FFF77EFE94F85C103F20884029
:100B1000B0602068016841F016010160206C20B1CE
:100B20002068016841F0080101602068016841F017
:100B300001010160DCE700002DE9F84F00224FF0D1
:100B4000010803254FF00F0E0B6808FA02F423404A
:100B5000A3426ED14E68012E05D0022E03D0112E75
:100B600001D0122E12D186684FEA420C05FA0CF71A
:100B7000BE43CF6807FA0CF7374387604668A64341
:100B80000C79C4F30014944034434460C6685700A1
:100B900005FA07FC8C6826EA0C06BC403443C460A6
:100BA0004C68022C01D0122C13D1D40800EB840421
:100BB000A346D4F8209054074FEAD46A0EFA0AF6F6
:100BC00029EA06090E6906FA0AF646EA0906CBF88A
:100BD000206006680C7926EA0C0604F00304BC4089
:100BE000344304604C68E40065D5364C266846F40E
:100BF00080462660246822F0030604F480440094B2
:100C0000314C3444A446D4F808489607370F0EFAFE
:100C100007F6B4432D4EB04201D1002624E02C4EFD
:100C2000B04201D101261FE02A4EB04202D1022675
:100C30001AE040E0284EB04201D1032614E0274ECE
:100C4000B04201D104260FE0254EB04201D1052665
:100C50000AE0244EB04201D1062605E0224EB04201
:100C600001D1072600E00826BE402643CCF80868DC
:100C70001E4E34684F689C43FF0300D51C4334600C
:100C80001A4C241D26684F689E43BF0300D51E439F
:100C90002660164E083634684F689C43FF0200D524
:100CA0001C433460114E0C3634684F689C43BF02BD
:100CB00000D51C433460521C102AFFF445AFBDE838
:100CC000F88F00004438024000300140000002402C
:100CD0000004024000080240000C024000100240E4
:100CE0000014024000180240001C0240003C014079
:100CF0000148806870470000280000200248816891
:100D00000278114481607047280000200B4810B51C
:100D1000016841F400710160016841F48061016083
:100D2000016841F480710160032000F06FF8002039
:100D300000F006F800F024F8002010BD003C02404E
:100D400070B50D4D04464FF47A712878B1FBF0F080
:100D50000A490968B1FBF0F000F004FB48B9102C17
:100D600007D200222146501E00F030F800206C60AF
:100D700070BD012070BD000028000020340000205C
:100D80000A4808B5016841F480410160006800F438
:100D9000804000900548001F016841F080510160CB
:100DA000006800F08050009008BD00004438024008
:100DB000002809DB00F01F0201219140400980005A
:100DC00000F1E020C0F8001170470000F0B40E4BB5
:100DD0001B680C46C3F30223C3F10705042D00D999
:100DE0000425191D072901D2002300E0DB1E01267E
:100DF00006FA05F1491E214099409E40761E164094
:100E00003143F0BC01F04EB90CED00E0064900F0B2
:100E1000070208684FF6FF03184040EA0220034A21
:100E200010430860704700000CED00E00000FA0578
:100E30002DE9F0470E46050065D0DFF81481D8F89B
:100E40000000F7B200F00F00B04207D288F800703F
:100E5000D8F8000000F00F00B04254D128683D4C93
:100E6000810712D5400703D5206840F4E050206088
:100E70002878000703D5206840F46040206020688F
:100E8000A96820F0F000084320602878C0072DD022
:100E9000304968680839012812D0022813D0032885
:100EA00011D00968890700292DDA216821F0030192
:100EB00001432160FFF71CFF814641F2883A0EE0B2
:100EC00009688903EFE709688901ECE7FFF710FF7C
:100ED000A0EB0901514502D90320BDE8F087206845
:100EE000696800F00C00B0EB810FEFD1D8F800106A
:100EF000404601F00F01B14207D90770006800F0C9
:100F00000F00B04201D00120E7E72878400705D55F
:100F10002068E96820F4E050084320602878000742
:100F200006D52068296920F4604040EAC1002060AD
:100F300000F038F82168084AC1F30311515CC84039
:100F40000649086006480068FFF7FAFE0020C4E77B
:100F5000003C0240083802404C2B000834000020BE
:100F60002C0000200448054900680968044AC1F3C0
:100F70008221515CC840704734000020083802408C
:100F80005C2B00080448054900680968044AC1F35D
:100F90004231515CC840704734000020083802409C
:100FA0005C2B0008154810B5006810F00C021448BE
:100FB00013D01449042A0FD0082A0ED10F4C241F35
:100FC0002268236802F03F025B0207D52068C0F365
:100FD0008810A0FB010106E0084610BD2168C1F39E
:100FE0008811A1FB00010023FFF7EAF82168C1F393
:100FF0000141491C4900B0FBF1F010BD0838024026
:101000000024F40040787D012DE9F84F040076D0EB
:101010002078DFF838A3CE4DC00749D0DAF80010A9
:101020005046C1F38101012908D00068C0F3810056
:1010300002280AD1281D0068400206D528688003CE
:1010400036D560680028E2D032E06068B0F5803FB5
:1010500010D0B0F5A02F286810D020F48030286080
:10106000286820F4802028606068A0B1FFF740FE67
:1010700006460CE0286840F48030F4E740F4802015
:101080002860F7E7FFF734FE801B642873D82868D0
:101090008003F7D50CE0FFF72BFE064605E000BF06
:1010A000FFF726FE801B6428F0D828688003F7D459
:1010B0002078DFF8A08280074FF000093ED5DAF8EB
:1010C0000010504611F00C0F09D00068C0F38100E9
:1010D00002280BD19D48001F0068400206D42868F2
:1010E000800715D5E068012809D111E0E068B8B1A2
:1010F0000120C8F80000FFF7FBFD064605E020E1EF
:10110000FFF7F6FD801B0228C0D828688007F7D5B6
:101110002868216920F0F80040EAC10028600DE04D
:10112000C8F80090FFF7E4FD064604E0FFF7E0FD95
:10113000801B02281FD828688007F7D42078000772
:1011400022D5824E844861696C3671B101210160FB
:10115000FFF7CEFD074604E0FFF7CAFDC01B0228DB
:1011600009D830688007F7D50EE0C0F80090FFF787
:10117000BFFD074605E082E0FFF7BAFDC01B02286D
:101180007DD830688007F7D42078400768D5DFF82D
:10119000BCB100270BF1380BDBF80000C0000BD40A
:1011A000DBF8001041F08051CBF80010DBF80000B4
:1011B000012700F080500090684E3068C00510D4C0
:1011C000306840F480703060FFF792FD009005E0D9
:1011D000FFF78EFD0099401A022850D83068C005EC
:1011E000F6D55A4EA068683601280FD00528306819
:1011F00010D020F001003060306820F00400306032
:10120000A068B8B1FFF774FD00900FE0306840F0BF
:101210000100F4E740F004003060F7E7FFF768FDF5
:101220000099411A41F28830814266D830688007BF
:10123000F4D50EE0FFF75CFD009007E0FFF758FDE6
:101240000099411A41F28830814256D830688007AF
:10125000F4D42FB1DBF8001021F08051CBF800104E
:10126000A069D0B3DAF800205146C2F38102022A05
:101270004AD00228484607D0C8F8600000E03CE0A9
:10128000FFF736FD04463BE04746C8F86000FFF72D
:101290002FFD064605E000BFFFF72AFD801B022850
:1012A0002BD828688001F7D4D4E907010843A16A44
:1012B0002B4A490802EB0141626A41EA8211084364
:1012C00094F82C1040EA01612048001F01600120C1
:1012D0003866FFF70DFD044605E034E0FFF708FD32
:1012E000001B022809D828688001F7D52BE000BF31
:1012F000FFF7FEFC001B022802D90320BDE8F88F8F
:1013000028688001F4D41EE00128F7D00868E2695B
:1013100000F48001914214D1226A00F03F01914211
:101320000FD147F6C071626A0140914209D1A26AA9
:1013300000F44031914204D1E16A00F070608842CB
:1013400001D00120DAE70020D8E700000838024089
:101350000038024000004742800E474200700040C3
:101360000000FFFF10B5401EB0F1807F01D30120C7
:1013700010BD4FF0E02460610F21601700F092FE75
:101380000020A06107202061002010BD70470000F0
:1013900070B5026804461068D168536910F00F0FE9
:1013A00052D003F0010501F490762E435FD0C207BE
:1013B00005D0CA0503D5E26B42F00102E2634207A1
:1013C00005D5DA0703D0E26B42F00202E26382073E
:1013D00005D5DA0703D0E26B42F00402E2630207AC
:1013E00007D501F020022A4303D0E26B42F0080245
:1013F000E263E26B002A33D0800604D5880602D56A
:10140000204600F0E2FC20684069E16BC0F38010E8
:10141000090700D428B3204600F0C0FC20684169C9
:1014200049061AD5416921F040014161606BA0B1C4
:101430001B490165606BFFF7FBF9002810D0606B5A
:10144000016DBDE870400847830610D58B060ED5A8
:101450002046BDE8704000F0B8BC2046FFF796FF7C
:1014600070BD2046FFF792FF0020E06370BD0306C9
:1014700006D50B0604D52046BDE8704000F084BDBB
:101480004006F3D54806F1D5D168204621F0400149
:10149000D160202184F8391000F0DEFA70BD000020
:1014A000C51C000870B5040004D094F8390000256C
:1014B00010B106E0012070BD84F83850204600F0DD
:1014C00023F8242084F839002068C16821F40051F1
:1014D000C160204600F0C4FC2068016921F49041FD
:1014E00001612068416921F02A0141612068C168D9
:1014F00041F40051C160E563202084F8390084F88C
:101500003A00002070BD00002DE9F04F87B005467D
:1015100014216846FEF78CFEAD48DFF8B08214381F
:101520000221D5F800C0DFF8A8E20122032300243D
:101530008F0606154FF007094FF0400AC4455BD1EE
:10154000DEF80080A34648F01008CEF80080DEF8F0
:1015500000C00CF0100CCDF814C0D0F800C04CF056
:10156000010CC0F800C0006800F0010005905802AE
:101570008DE80F0269469748FFF7DEFADFF85C82D4
:1015800095494046C8F80010C0E90174C0E9034617
:10159000C8F81440C8F81840C8F81C40C8F82040E3
:1015A000C8F82440FFF726FA08B1FFF740F98B4C42
:1015B0008948C5F8348060347830C8F8385084E8F9
:1015C0008104C4E903B6C4F814B0C4F818B0C4F870
:1015D0001CB0C4F820B02046C4F824B0FFF70AFAC3
:1015E00008B1FFF724F92C63002211462520A563DA
:1015F000FFF7ECFB25205EE0DFF8E481DFF8D0B1F7
:10160000C445ABF1040B5BD1DBF8008048F4003833
:10161000CBF80080DBF800C00CF4003CCDF814C01F
:10162000D0F800C04CF0010CC0F800C0006800F019
:10163000010005900C208DE80F0269466548FFF710
:101640007BFADFF89891674909F1C0094846C9F863
:101650000010C0E90174C0E90346C9F81440C9F894
:101660001840C9F81C40C9F82040B846C9F82440C1
:10167000FFF7C0F908B1FFF7DAF85B4FC5F834900F
:10168000C9F83850C7E903467C61BC615548FC6124
:101690003C6218307C6287E801053846FFF7AAF9FA
:1016A00008B1FFF7C4F82F63002211462620BD635E
:1016B000FFF78CFB2620FFF77BFB07B0BDE8F08F20
:1016C000DFF82881C4455BD1DBF80080002448F4B2
:1016D0008028CBF80080DBF800C00CF4802CCDF81B
:1016E00014C0D0F800C04CF0020CC0F800C0006874
:1016F00000F0020005904FF440608DE80F0269464B
:101700003B48FFF719FADFF8E080364908F1600836
:1017100060394046C8F80010C0E90174C0E90346CA
:10172000C8F81440C8F81840C8F81C40C8F8204051
:10173000C8F82440FFF75EF908B1FFF778F82A4CA3
:101740002848C5F83480C0343038C8F8385084E8A8
:1017500081040020C4E903066061A061E0612062A9
:1017600060622046FFF746F908B1FFF760F82C6386
:10177000002211462720A563FFF728FB27209AE7C0
:101780001C4CA44599D1DEF8005045F02005CEF858
:101790000050DEF8004004F020040594046844F092
:1017A00004040460006800F004000590C0208DE887
:1017B0000F000820049069460F48FFF7BDF900228A
:1017C00011464720FFF702FB472074E70010014055
:1017D00044380240000002404064024050010020B2
:1017E0000044004088600240700200200048004031
:1017F000000402400014014000080240F8B504460D
:1018000090F83A0020283CD1C1B3BAB394F838001C
:10181000012836D0012084F83800A162A285002575
:10182000E563222084F83A00636B1748D863636B42
:1018300016481864636B1648D864606B13460565D8
:101840000846666B216802463046091DFFF73CF9E1
:10185000206801684168009184F83850C16841F4FB
:101860008071C1602068416941F0010141612068D7
:10187000416941F0400141610020F8BDFFE70120CE
:10188000FBE70220F9E700001F1D00085B1D0008B0
:10189000D51C000890F83A30202B22D1F9B1F2B1D2
:1018A00090F83830012B1CD081628285C2850021DE
:1018B000C163222280F83A2080F838100168CA6893
:1018C00042F48072CA6001684A6942F001024A61CA
:1018D0000068C16841F02001C1600020704701200C
:1018E0007047022070470000094988420DD109481D
:1018F0000178012903D0032907D1042104E0064916
:101900000978552902D00021017070470221FBE7B8
:10191000D0000020260000209003002070472DE911
:10192000F843044690F839001F4616460D46202815
:1019300050D1B5B1AEB194F8380001284AD0012099
:1019400084F838004FF00008C4F83C80212084F867
:101950003900FFF7CDF9A6848146E68484F8388003
:1019600026E00120BDE8F883E08C401EE084A068FA
:101970004B46B0F5805F4FF000024FF080012046EB
:10198000009703D000F031FBE8B90DE000F02DFB2B
:10199000C8B928882168C0F308004860206908B1E8
:1019A0006D1C05E0AD1C03E0216815F8010B4860D3
:1019B000E08C0028D8D14B460022402120460097D9
:1019C00000F013FB08B10320CCE7202084F8390095
:1019D0000020C7E70220C5E770B5044690F839003B
:1019E000202830D169B362B394F8380001282AD096
:1019F000012084F838002162A284E2840025E56396
:101A0000212084F83900236B1048D863236B1048D9
:101A10001864236B0F48D864206B1346056526684D
:101A2000206B321DFFF750F821686FF0400008600E
:101A300084F838502068416941F0800141610020FC
:101A400070BD012070BD022070BD0000651D000842
:101A5000931D0008D51C000870477047FEE7000082
:101A6000214808B5016841F400110160016801F4E2
:101A700000110091016841F48001016000680022BA
:101A800000F48000009011460C20FFF79FF90C2015
:101A9000FFF78EF9002211460E20FFF797F90E206E
:101AA000FFF786F9002211461020FFF78FF910206A
:101AB000FFF77EF9002211461120FFF787F9112068
:101AC000FFF776F9002211463A20FFF77FF93A2016
:101AD000FFF76EF9002211464620FFF777F9BDE8BF
:101AE00008404620FFF764B930380240114808B575
:101AF000016841F080010160016801F080010091FE
:101B0000016841F001010160016801F001010091EB
:101B1000016841F002010160016801F002010091D9
:101B2000016841F004010160006800F004000090C9
:101B300008BD0000303802400C4810B50A49016069
:101B40004FF4E1314160002181600C22C160C0E9A5
:101B500004128161C161FFF7A5FC002803D0BDE834
:101B60001040FEF764BE10BD001001405000002080
:101B70000C4810B50A4901604FF41651416000212C
:101B800081600C22C160C0E904128161C161FFF76C
:101B900089FC002803D0BDE81040FEF748BE10BD08
:101BA00000440040900000200C4810B50A49016034
:101BB0004FF4E1314160002181600C22C160C0E935
:101BC00004128161C161FFF76DFC002803D0BDE8FC
:101BD0001040FEF72CBE10BD00480040D000002091
:101BE0000C4810B50A4901604FF4E1314160002111
:101BF00081600C22C160C0E904128161C161FFF7FC
:101C000051FC002803D0BDE81040FEF710BE10BD07
:101C10000014014010010020FEE770477047704734
:101C2000FFF76CB830B593B030216846FEF700FB83
:101C300014210CA8FEF7FCFA19480025016841F0B0
:101C400080510160006800F08050119015480168D3
:101C500041F4804101600068022400F4804011904A
:101C60000120039010200490009406940820CDE9F0
:101C70000750A820CDE9090404200B906846FFF71F
:101C8000C3F90CA90F2081E831004FF4A0500F9048
:101C9000E002109005210CA8FFF7CAF813B030BD80
:101CA00040380240007000400548016841F470016E
:101CB000016003494FF00060803908607047000000
:101CC00088ED00E010B5806B0021C185C184FFF76D
:101CD0005DFB10BD70B5846B2068406994F83910C5
:101CE000C0F3C0100025212904D118B1E584204695
:101CF00000F062F82068406994F83A10C0F3801050
:101D0000222904D118B1E585204600F047F8E06BA0
:101D100040F01000E0632046FFF738FB70BD10B5BF
:101D20000146806B09680968C90513D40021C18583
:101D30000168CA6822F48072CA6001684A6922F0A8
:101D400001024A6101684A6922F040024A61202189
:101D500080F83A10FFF7C8FD10BD10B5806BFFF793
:101D6000DDFD10BD10B50146806B09680968C90525
:101D70000CD40021C18401684A6922F080024A61C2
:101D80000068C16841F04001C16010BDFFF764FE0A
:101D900010BD10B5806BFFF760FE10BD0168CA680A
:101DA00022F49072CA6001684A6922F001024A6115
:101DB000202180F83A1070470168CA6822F0C002FA
:101DC000CA60202180F83910704710B590F83A1099
:101DD000222901D0022010BD8168B1F5805F11D0A9
:101DE0000169002901681FD0496801F07F03816AF9
:101DF0004A1C82620B70C18D491E0904090CC18501
:101E000018D02BE00269816A002A0268526805D066
:101E1000D2B20A80816A491C8162ECE7C2F30802EF
:101E20000A80816A891CF7E74A68816A4B1C8362D1
:101E30000A70E0E70168CA6822F02002CA600168FF
:101E4000CA6822F48072CA6001684A6922F00102FD
:101E50004A61202180F83A10FFF746FD002010BDAE
:101E60002DE9F041044600680169E26821F440511F
:101E7000114301612169A068E26908436169114366
:101E800008432168CA6849F20C639A430243CA6056
:101E900020684169A26921F4407111434161E06900
:101EA000192764253226B0F5004F354A3549206898
:101EB0004FF0000806D0884201D0904236D1FFF79B
:101EC00061F835E0884201D0904202D1FFF75AF81C
:101ED00001E0FFF747F861684A18A0FB070148EBEB
:101EE0000803FEF76DF90146B0FBF5F00201B1FB06
:101EF000F5F06FF01803584301EB800006EBC000CB
:101F0000B0FBF5F000F0F80002EB4002B1FBF5F099
:101F1000584301EB800006EBC000B0FBF5F000F089
:101F20000700216810448860BDE8F081FFF71AF8C7
:101F300061688B0F8A00A0FB0701FEF741F901469B
:101F4000B0FBF5F06FF01802504301EB800006EB98
:101F50000010B0FBF5F000F0F002B1FBF5F002EB81
:101F60000012B1FBF5F06FF01803584301EB80004D
:101F700006EB0010B0FBF5F000F00F00D1E7000019
:101F8000001401400010014090F83910212901D0BF
:101F9000022070478168B1F5805F016A0BD04A1C4E
:101FA0000262026809785160C18C491E0904090C5B
:101FB000C1840ED017E009880268C1F3080151609E
:101FC00001690029016A02D0491C0162ECE7891C01
:101FD000FBE70168CA6822F08002CA600068C16835
:101FE00041F04001C160002070472DE9F041984662
:101FF00017460E460446069D1DE0681C1BD02DB1F9
:10200000FEF776FEA0EB0800A84214D92068C1684C
:1020100021F4D071C1602068416921F00101416162
:10202000202084F8390084F83A00002084F8380031
:102030000320BDE8F0812068006836EA000004D083
:102040000020B842D9D00020F3E70120F9E70000D2
:102050000148FFF79DB90000500000200148FFF73C
:1020600097B90000900000200148FFF791B90000E7
:10207000D00000200148FFF78BB9000010010020BC
:10208000FEE700000FB4054B10B503A9044A0298FF
:1020900000F0EAF810BC5DF814FB00009929000874
:1020A000380000200907090E002804DB00F1E020B9
:1020B00080F80014704700F00F0000F1E02080F875
:1020C000141D704702E008C8121F08C1002AFAD187
:1020D00070477047002001E001C1121F002AFBD1A8
:1020E000704700002DE9FF5F82B00021DDE9043078
:1020F000020DDDF840B0034318D044F61050A2F2B0
:10210000FF3242431514119801281FD0A5EB0B0094
:10211000401C5FEA000A4FF000064E4FDFF838918E
:10212000B046504615D5CAF1000413E011980124B9
:102130004AA3012801D16FEA0B010298119AC0E964
:102140000031C0E9024206B0BDE8F09FCBF10000CB
:10215000DFE704460021404A491842EB0450CDE92C
:10216000001012E0E00707D032463B4640464946A1
:10217000FEF769F88046894632463B4610461946C6
:10218000FEF761F806460F466410002CEAD1DDE93F
:102190000401DDE90023BAF1000F06DAFEF753F877
:1021A00042464B46FEF74FF805E0FEF704FA42467A
:1021B0004B46FEF700FA04460E460022284BFEF777
:1021C00081FA03D84FF0FF30014607E00022254B8B
:1021D00020463146FEF748F9FEF75CFA102409E084
:1021E000002C0ADB0A220023FDF7EAFF039B3032B2
:1021F0001A55641E50EA0102F2D1641C039AC4F11C
:1022000011031444119A012A03D0012208430DD16D
:102210000AE0084304D000204FF0110B119072E740
:10222000A3EB0B056D1E0DE05B4504DD4FF00002D6
:1022300005F1010504E003DA4FF00002A5F1010504
:10224000002AECD002981199C0E90231C0E900459A
:1022500079E70000000014400000F03F300000006B
:102260000000F0430000E03F2DE9FF4F95B09B4692
:102270008946064600250FE2252877D10024274607
:10228000F84A0121059400E0044316F8013F203B81
:1022900001FA03F01042F7D130782A2811D06FF0FC
:1022A0002F033078A0F13002092A16D8059A44F09D
:1022B000020402EB820203EB42021044761C0590FA
:1022C000EFE759F8042B0592002A03DA504244F450
:1022D0000054059044F00204761C30782E2816D164
:1022E00016F8010F44F004042A280DD06FF02F02D5
:1022F0003078A0F13003092B09D807EB870302EBF4
:102300004303C718761CF3E759F8047B761C307832
:102310006C280FD006DC4C2817D068280DD06A280E
:1023200014D104E0742810D07A280FD10DE044F4C1
:1023300000140AE044F4801401E044F4401472787C
:10234000824202D104F58014761C761C307866280F
:102350000BD013DC582877D009DC002875D045282D
:10236000F6D04628F4D047281AD19DE118E063281A
:1023700035D0642879D0652812D195E1702873D0C2
:1023800008DC6728F1D069286FD06E280DD06F283F
:1023900006D1B5E073282CD0752875D0782874D074
:1023A0005A46179990476D1C75E1C4F302500228F4
:1023B00009D003280DD0D9F8001004280DD00D60E5
:1023C00009F1040967E1D9F80010EA17C1E90052E0
:1023D000F6E7D9F800100D80F2E70D70F0E719F874
:1023E000041B8DF8001000208DF80100EA46012042
:1023F00003E059F804AB4FF0FF3061074FF00001E4
:1024000002D40DE008F101018846B9420FDA804597
:10241000F8DB1AF808100029F4D108E008F10101EE
:1024200088468142FADB1AF808100029F6D105988F
:102430005B46A0EB080721463846179A00F094FA4D
:10244000284400EB080507E04DE029E10DE01AF80B
:10245000010B5A4617999047B8F10108F7D25B462D
:1024600021463846179A13E142E00A220092C4F34B
:1024700002524FF0000A022A08D059F804CB032A6E
:102480004FEAEC710AD00DE029E02AE009F10701DA
:1024900021F00702F2E802C1914609E00FFA8CFC34
:1024A0004FEAEC71042A03D14FFA8CFC4FEAEC712D
:1024B000002907DA0A460021DCF1000C61EB020179
:1024C0002D2202E0220504D52B228DF804200122C2
:1024D00003E0E20701D02022F7E7904659E00A2105
:1024E00002E010220DE010214FF0000A00910BE0F5
:1024F00010224FF0000A44F004040827009203E081
:1025000008224FF0000A0092C4F30252022A05D0BA
:1025100059F804CB0021032A08D009E009F107018A
:1025200021F00702F2E802C1914605E01FFA8CFC97
:10253000042A01D10CF0FF0C4FF00008220728D527
:10254000702806D0009B83F0100353EA0A0305D0DD
:102550000EE040228DF80420012208E05CEA01022E
:1025600006D030228DF804208DF805000222904616
:10257000009B83F0080353EA0A030AD15CEA0102D4
:1025800001D1620705D530228DF804204FF00108F3
:102590007F1E582804D034A003900EA802900DE0AE
:1025A00036A0F9E753466046009AFDF709FE8446D7
:1025B0000398825C0298401E029002705CEA01005F
:1025C000F0D1029806A9081A00F1200A600702D586
:1025D00024F4803400E00127574502DDA7EB0A0010
:1025E00000E0002000EB0A01009005984144401AE9
:1025F0000590E00306D45B462146179A059800F043
:10260000B3F90544002706E001A85A46C05D1799B2
:1026100090476D1C7F1C4745F6DBE0030CD55B46FD
:102620002146179A059800F09FF9054404E03020F0
:102630005A46179990476D1C0099481E0090002932
:10264000F5DC08E0029802995A460078491C02918C
:10265000179990476D1CBAF10001AAF1010AF1DC4B
:1026600065E1000009280100303132333435363756
:1026700038396162636465660000000030313233CE
:10268000343536373839414243444546000000006E
:1026900000F058F90544761C307800287FF4ECAD42
:1026A00019B02846BDE8F08F620700D4062709F16B
:1026B000070222F0070CFCE80223E14603F0004881
:1026C0005FEA080C02D00FF2702C0DE05FEA045CA8
:1026D00002D50FF2682C07E05FEAC47C02D00FF24B
:1026E000602C01E0AFF2700C4FF0FF3823F0004394
:1026F000CDF850C065280CD006DC452809D0462806
:102700001DD047283DD13DE0662818D067287ED1EE
:1027100038E00021112F01DB112000E0781CCDE909
:10272000000106A90EA8FFF7DDFCDDE90F010E9AF6
:1027300003910021009207F1010A04914DE04FF04E
:1027400000400097CDE9011006A90EA8FFF7CAFCCA
:10275000DDE90F0203920E9B11990022DDF80CA017
:102760000093049211B9791C00EB010AB7EB0A003F
:1027700004D4C0F1FF3007F1010A0490AAEB07006E
:10278000019044E0012F00DA01270021112F01DD23
:10279000112000E03846CDE9000106A90EA8FFF798
:1027A000A1FCDDE90F010E9A039100210491009232
:1027B000BA4621070CD40399514500DA8A46BAF18A
:1027C000010F05DD009AAAF10101515C302908D002
:1027D000B84202DA10F1040F06DA0121CDE9011046
:1027E00015E0AAF10101E9E7002805DC049901449C
:1027F0000491AAEB000102E0411C514500DD8A462C
:102800000499401A401C01904FF0004002902007AC
:1028100004D40198504501DBCDF8048000208DF8E8
:102820004F0002980DF14F07B0F1004F25D02B203B
:102830000E9002984FF0020800280CDA40420290F5
:102840002D200E9007E00A210298FDF77BFD303124
:10285000029007F8011DB8F10001A8F10108F2DCAF
:1028600002980028EFD1791E0E980870307800F099
:10287000200040F0450007F8020D12A8C01B00F12F
:1028800007081498007800B1012000EB0A010198B4
:1028900001EBE07105984144401A401E0590E003A9
:1028A00006D45B462146179A059800F05DF805446A
:1028B0001498007818B15A46179990476D1CE00398
:1028C00024D55B462146179A059800F04DF805443B
:1028D0001CE00498002807DBDDE90301884203DDE2
:1028E0000098405C179901E0179930205A469047AC
:1028F000049805F10105401C04900198401E0190C8
:1029000004D12E205A46179990476D1CBAF1000148
:10291000AAF1010ADDDC05E017F8010B5A46179908
:1029200090476D1CB8F10001A8F10108F4DC5B468A
:102930002146179A0598ABE62D0000002B000000F9
:10294000200000002DE9F041044600251E461746F0
:10295000880404D405E039462020B0476D1C641E6D
:10296000F9D52846BDE8F0812DE9F041044600255F
:102970001E469046C80301D5302700E02027880472
:1029800004D505E041463846B0476D1C641EF9D5B4
:102990002846BDE8F081000013B54FF6FF73012211
:1029A00069460248FEF7BBFF00981CBD500000209E
:1029B0001CB5FEF7ABF9FFF735F9FFF797F8FFF70E
:1029C0004FF8FFF7B9F8FFF7D3F8FFF7EDF8FFF787
:1029D00007F90F4800F0AEF80EA0FFF753FB114CBB
:1029E000104800F02FF894ED020B0FA08DED000BB6
:1029F00094ED000B53EC102BFFF744FB104800F054
:102A00007FF86421002000BF401C8842FBD3E7E729
:102A10001001002074657374206D657373616765C0
:102A20000A00000040000020616E5F76656C3A206D
:102A300025662C20616E3A202566200D0A000000D4
:102A4000000000202DE9F041244C06462DED028BBC
:102A500000252078224905281BD2DFE800F0031268
:102A60000B1216000D7001221D491E48FEF7C6FE0E
:102A7000012005E015221B48491CFEF7BFFE03207C
:102A80002070BDEC028BBDE8F0814878522802D05E
:102A900025702570F5E70F46C888FDF746FC9FEDC9
:102AA000128B53EC182BFDF7CEFB9FED111B53EC53
:102AB000112BFDF7C8FBC6E90001B7F81100FDF7BF
:102AC00034FC53EC182BFDF7BEFB9FED0B1B53ECB6
:102AD000112BFDF7B8FBC6E90201DAE7260000205A
:102AE00090030020D0000020000000000000003F04
:102AF0000000000000409F40000000000080664091
:102B00000A4931220A7030224A7002788A7042786B
:102B1000CA7082780A71C2784A7102798A714079E2
:102B2000C87108220248FEF757BF00001E000020AF
:102B30009000002002490122C860FEF7ABBE0000F1
:102B40000800002000061016000610160000000005
:102B5000000000000102030406070809000000004D
:102B600001020304842B0008000000203C00000048
:102B7000C4200008C02B00083C0000206C070000A7
:102B8000D42000088000792A8000000000000000A6
:102B900000000000FFFFFFFF000000000000000039
:102BA0000000000000000000000000000100000024
:102BB00010000000000000000024F40000000000ED
:040000050800018965
:00000001FF
