:020000040800F2
:10000000D007002045010008E5400008A5280008A9
:10001000893A000889080008CD4700080000000060
:10002000000000000000000000000000094100087E
:100030003309000800000000074100082D410008B6
:100040005F0100085F0100085F0100085F01000810
:100050005F0100085F0100085F0100085F01000800
:10006000790900085F0100085F0100085F010008CE
:100070005F0100085F0100085F0100085F010008E0
:10008000F1080008FD080008C10700085F0100082A
:100090005F0100085F0100085F0100085F010008C0
:1000A0005F0100085F0100085F0100085F010008B0
:1000B0005F0100085F0100085F010008A92800082F
:1000C0005F0100085F0100085F0100085F01000890
:1000D0005F0100085F010008C14700085F010008D8
:1000E000350900085F0100085F0100085F01000892
:1000F0005F0100085F0100085F0100085F01000860
:100100005F0100085F0100085F0100085F0100084F
:100110005F0100085F0100085F0100085F0100083F
:100120005F0100085F0100085F0100085F0100082F
:10013000DFF80CD000F032FB00480047B54800085B
:10014000D00700200648804706480047FEE7FEE744
:10015000FEE7FEE7FEE7FEE7FEE7FEE7FEE7FEE777
:10016000AD41000831010008202A04DB203A21FAC1
:1001700002F00021704721FA02F3D040C2F12002C0
:100180009140084319467047D2B201E000F8012BB4
:10019000491EFBD270470022F6E710B513460A4607
:1001A00004461946FFF7F0FF204610BDF0B480EA80
:1001B0000102D40F4200B2EB410F02D202460846C0
:1001C00011464A0042D0C30DDDB2C1F3C752AD1A89
:1001D000202D35DAC1F3160141F4000204B1524278
:1001E000C5F1200602FA06F12A411044B3EBD05FB4
:1001F00023D0C4B1012DA0EBC35009DCF0BC4FF0FB
:10020000004202EAC352DBB200F5000000F03ABA45
:10021000400000F1807000EBC350A0F1807040EA14
:10022000D170490009E0490841EAC071A0EBC35010
:1002300000F50000400800EBC350F0BC00F019BA14
:100240006142012202EB4101001BF6E7F0BC70475E
:1002500081F00041AAE780F00040A7E780EA0102B0
:1002600010B502F00043400022D04A001FD0010E1A
:1002700001EB1261C0F35600C2F3560240F40000D5
:1002800042F40002A0FB022000047F39140400D0D5
:10029000401C50EA124001D44000491EC2B20C0674
:1002A00004EBD010401C4008802A02D003E000205C
:1002B00010BD20F00100002900DA0020184310BD15
:1002C00030B480EA010202F0004530F0004221F033
:1002D000004013D090B1C30DD40DC2F31601C0F38A
:1002E0001600E41A41F4000140F400027D3491420A
:1002F00001D3641C00E04900002C02DA30BC00206D
:1003000070474FF400000023914201D3891A034340
:1003100040084FEA4101F7D151B1914202D14FF06B
:10032000004105E002D24FF0010101E06FF0010150
:1003300003EBC450284430BC00F09BB92DE9FE4FBC
:10034000804681EA0300C00F0C46009021F0004176
:1003500023F00045B8EB0200A94105D240462146F2
:1003600090461C460B46024623F00040104347D0FF
:10037000270DC7F30A00C3F30A510290401A0190F7
:1003800040286BDAC3F3130040F4801B00989246B8
:1003900020B10023D2EB030A63EB0B0B0198594603
:1003A000C0F14002504600F043F906460D46504663
:1003B0005946019A00F04BF910EB08006141002406
:1003C00087EA115284EAE7731A4340D0009A62B375
:1003D000019A012A4FEA075215DC001B61EB02016A
:1003E0004FF0004202EA0752CDE90042001C41F5FD
:1003F000801132462B4600F082F903B0BDE8F08F41
:1004000040462146F9E7001B61EB0201001C41F563
:10041000801300185B412018A2F5001747EB030179
:1004200040EAD570B6196D4111E06D084FEA360605
:1004300045EAC0754FEA0752001B61EB0201001C40
:1004400041F5801149084FEA300000195141324608
:100450002B4603B0BDE8F04F00F042B900980122EE
:1004600040000023D0EB020263EBE07300982146CA
:100470004FEAE074B8EB000061EB0401E9E783F0B8
:1004800000435BE781F0004158E72DE9FE4F81EA28
:10049000030404F0004421F0004100944FF0000BED
:1004A00023F0004350EA01045ED052EA03045BD01B
:1004B000C3F30A54C1F30A552C44A4F2F334019453
:1004C000A0FB0254C1F3130141F48011C3F31303E1
:1004D00043F4801301FB024400FB034E840A970A95
:1004E00044EA815447EA8357A4FB076802958D0AC2
:1004F00005FB07854FEA932C04FB0C542705029D4E
:100500004FEA065847EA1637B5EB08056EEB070CBD
:10051000870E920E47EA811742EA8312A7FB020177
:10052000B6EB0B0164EB00042B0D43EA0C335E18B1
:1005300044EB1C50DA465146E7FB0201C5F31304B5
:100540004FEA0B3343EA14534FEA0432019C43EA67
:100550000603A4F10C040294009CCDE900B400F061
:10056000CEF803B0BDE8F08F00200146F9E7C10FD7
:1005700080EAE0700844CA079623002100F082B8A0
:1005800096230022114600F07DB800F0004220F0D2
:100590000040C10DC0F3160040F400007F2901DACD
:1005A00000207047962903DCC1F19601C84001E0A4
:1005B00096398840002AF4D04042704700F000424B
:1005C00030F000400AD0C10D01F56071C0F3160093
:1005D00042EA0151C208400711437047002001461A
:1005E000704701F0004330B421F0004150EA0102AD
:1005F00006D00A0DA2F56072C1F31301002A02DCD5
:1006000030BC00207047440F44EAC104C100E01828
:1006100030BC00EBC25000F02CB80000002801DB19
:10062000C0F10040002901DBC1F100418842704760
:10063000202A04DB203A00FA02F1002070479140A2
:10064000C2F1200320FA03F3194390407047202A97
:1006500006DBCB17203A41FA02F043EAE07306E0EA
:1006600041FA02F3D040C2F12002914008431946FA
:1006700070470029A8BF7047401C490008BF20F000
:100680000100704710B4B0FA80FC00FA0CF050EA98
:10069000010404BF10BC704749B1CCF1200421FA19
:1006A00004F411FA0CF118BF012121430843A3EB14
:1006B0000C01CB1D4FEA00614FEA102042BF002021
:1006C00010BC704700EBC35010440029A4BF10BCFD
:1006D0007047401C490008BF20F0010010BC704763
:1006E00010B5141E73F1000408DA401C41F100013A
:1006F00092185B411A4301D120F0010010BD2DE991
:10070000F04D92469B4611B1B1FA81F202E0B0FA87
:1007100080F220329046FFF78BFF04460F4640EAF6
:100720000A0041EA0B0153465A46084313D01146CA
:1007300053EA010019D0C8F140025046FFF714FDFA
:1007400005460E46504659464246FFF771FF08439C
:1007500005D0012004E020463946BDE8F08D002098
:10076000054346EAE0762C4337430A986305E40ADA
:10077000A0EB08000022FD0A44EA47540A3002D5E3
:1007800000200146E9E7010510196941DDE9084546
:1007900000196941BDE8F04DA2E70000064C074D85
:1007A00006E0E06840F0010394E807009847103441
:1007B000AC42F6D3FFF7C0FC444D0008644D00087E
:1007C000014800F0C2B900000401002070B50446E1
:1007D00000688168C943C9071CD1816821F0010103
:1007E000816000F085FE05460FE000BF00F080FE4E
:1007F000401B022809D9A06A40F01000A062E06AFC
:1008000040F00100E062012070BD20688068C043B4
:10081000C007EBD0002070BDF8B500260446009656
:1008200000688168C943C90728D0816841F0010187
:100830008160134813490068B0FBF1F000E0401EEE
:1008400000900028FBD100F053FE054611E000BFE8
:1008500000F04EFE401B02280BD9A06A40F01000A9
:10086000A062E06A40F00100E06284F824600120A8
:10087000F8BD20688068C043C007E9D10020F8BDFA
:100880004400002040420F00FEE700002DE9F04147
:1008900000248046264600F02BFE134F054678685C
:1008A000854204D3114800F089FAC8357D600E49AD
:1008B0000020083140F6340331F8102016449A42E3
:1008C00001D2641CE4B2401CC0B20528F4D3052058
:1008D000B6FBF0F0A8F80000032C02D3FF20BDE81F
:1008E000F0810020FBE7000014000020040100203C
:1008F000014800F061BB000048030020014800F0FF
:100900005BBB00008C03002030B590F84050012400
:10091000AC40C56B6C60046863604368102B03686F
:1009200003D099600068C26030BD9A600068C16001
:1009300030BD704770B50C480168090413D54FF4F9
:10094000004404600421094800F0C4FD0546214626
:10095000074800F0BFFD07498542088801D1401EC5
:1009600000E0401C088070BD14040140000C0140F0
:10097000000801400C0000200C4810B50168490730
:1009800012D5042101600A4800F0A4FD04464FF48A
:100990000041084800F09EFD07498442088801D1C3
:1009A000401C00E0401E088010BD000014040140FF
:1009B000000C0140000801400C000020FEE7000090
:1009C00070B512494268124CB1F900301A444260C5
:1009D0002368426D5B6A1BB21A4442650D4AC36AC2
:1009E00015686D6A2DB22B44C3620B4BC56F1E6830
:1009F000766A36B23544C5670020088021684862AF
:100A0000116848621968486270BD00000C0000203F
:100A1000C8010020080200204802002070470000A2
:100A2000F8B50024009490F824202546012A12D01D
:100A3000012280F824204A681F23072A0DD2066865
:100A4000776B521E02EB820293409F430B689340E8
:100A50001F43776319E00220F8BD06680D2A0AD209
:100A6000376BD21F02EB820293409F430B68934087
:100A70001F43376309E0F76A0D3A02EB82029340A5
:100A80009F430B6893401F43F7620A680723066879
:100A90000A2A0AD3F7680A3A02EB420293409F43BC
:100AA0008B6893401F43F76008E0376902EB42020E
:100AB00093409F438B6893401F4337610A68102A15
:100AC00001D0112A20D1124B02689A4217D19368A3
:100AD0001B0219D4936843F400039360096810293A
:100AE00012D10C490C4A0968B1FBF2F101EB81010A
:100AF000490000E0491E00910029FBD104E0816A11
:100B000041F020018162012480F824502046F8BD84
:100B1000002401404400002040420F0010B500F0C6
:100B200011F8074BA3F108010A78052A23F81200EF
:100B300004D0521CD0B20870087010BD0020FBE732
:100B40001C0000200068C06C704710B504460068A7
:100B50004168890626D50168890723D5A16AC90697
:100B600003D4A16A41F40071A1628168C1F34241DA
:100B7000072910D1E16871B9416821F02001416075
:100B8000A06A20F48070A062A06AC00403D4A06AA6
:100B900040F00100A0622046FFF7C0FF21686FF01F
:100BA000120008602068416809062ED501684907CF
:100BB0002BD5A16AC90603D4A16A41F40051A162F0
:100BC0008168C1F30231072909D04168490515D46C
:100BD0008168C1F34241072910D1E16871B94168C8
:100BE00021F080014160A06A20F48050A062A06AD8
:100BF000C00503D4A06A40F00100A0622046FFF7C0
:100C00000DFF21686FF00C000860206841684906FC
:100C10000DD50068C0070AD0A06A40F48030A062F9
:100C2000204600F095F821686FF00100086010BDC3
:100C30002DE9F04104004FF000057FD0A06A0026A6
:100C400028B9E66284F82460204600F083F8204644
:100C5000FFF7BCFDA16AC90600D420B1A06A40F02C
:100C60001000A0626AE0A16A21F4885141F00201FB
:100C7000A162334923688B42E16904D1B1F5402F69
:100C800001D14FF40021E7684FF4807C41EA47022C
:100C900061680A43A168614508D0012906D0002196
:100CA000D4F814E0BEF1010F02D00AE06146F7E784
:100CB000C7B1A76A47F02007A762E76A47F00107B4
:100CC000E7625F6827F469470F435F6023689968AC
:100CD0001C4F394011439960A16861450BD001292F
:100CE00009D00CE0DFF860E0A7690EEB47370F434F
:100CF00047F40061E5E7218A0D05A5F58015216817
:100D0000CB6A23F470032B43CB62216889680F4BB5
:100D10001940914208D1E662A16A21F0020141F036
:100D20000101A162BDE8F081A06A20F0020040F05C
:100D30001000A062E06A40F00100E0620120F1E7EB
:100D4000003C0140FDF7E1FF00E0FFFFFE0E1FFF4A
:100D50007047000000B585B000210091019102911B
:100D6000039100681249884220D11248816941F4F8
:100D700000718161816901F400710491816941F020
:100D8000040181618069694600F00400049010202C
:100D9000009003200190084800F0A8FA00220621E4
:100DA000122000F0F3FD122000F0E4FD05B000BDBC
:100DB00000240140001002400008014070B50446C4
:100DC00090F8240001280DD0012084F8240020464A
:100DD000FFF722FD02004FF0000005D084F8240048
:100DE000104670BD022070BDA16A40F601639943B0
:100DF00041F48071A162224D23682249AB4218D18F
:100E00000E6816F4702F14D0A66A46F48016A662F7
:100E10000E68760505D5A66A26F4005646F4805677
:100E2000A662A66AF6040AD5E66A26F00606E66217
:100E300006E0A66A26F48016A6625E68E9E7E0622C
:100E400084F824006FF0020018602068436843F0C3
:100E50002003436020688368C3F34243072B05D116
:100E6000A84208D1096811F4702F04D0816841F4B8
:100E700080118160B4E7816841F4A001F9E70000C6
:100E800000280140042401402DE9F05F90F8211072
:100E90000024022903D004218163012485E0016834
:100EA0000A6822F00E020A6001680A6822F0010254
:100EB0000A603F4E3E4FB215DFF8F4C0DFF8F09005
:100EC000DFF8ECA0DFF8E8B0DFF8E4E00168783F95
:100ED00013011502ACF1640CA9F15009AAF13C0A06
:100EE000ABF1280BAEF1140E4FF48018B14227D9A4
:100EF000B9420ED0614512D049451DD0514518D098
:100F0000594518D0714501D1424615E0294EB142EC
:100F100001D1012210E0274E1436B14201D1102236
:100F20000AE0244E2836B14206D0224A3C32914291
:100F300001D11A4600E02A461E49091F0A602BE02B
:100F4000B94213D0614517D0494522D051451DD033
:100F500059451DD0714501D142461AE0B14202D136
:100F60004FF0807215E0134EB14201D1012210E022
:100F7000104E1436B14201D110220AE00D4E28362F
:100F8000B14206D00B4A3C32914201D11A4600E0F0
:100F90002A46074980394A60012180F82110002142
:100FA00080F82010416B01B188472046BDE8F09FD2
:100FB00080000240080402402DE9F05FC16B0A681E
:100FC00001680B68046C4FF0040808FA04F8844DBB
:100FD000844E854FDFF814C2DFF81492DFF814A2B4
:100FE000DFF814B2DFF814E218EA020F65D05FEA06
:100FF000437862D50A68920603D40A6822F0040294
:101000000A60DFF8F0814FF48062016808F114088B
:1010100013011402414524D9A9420DD0B1420FD089
:10102000B9421AD0614515D0494515D0514501D175
:10103000120312E0594501D104220EE0714501D19D
:1010400040220AE06D4D1435A94206D06B4A283281
:10105000914201D11A4600E022466749091F0A6001
:1010600029E0A94213D0B14215D0B94220D0614540
:101070001BD049451BD0514502D14FF4800217E0E7
:10108000414502D14FF0806212E0594501D104225E
:101090000EE0714501D140220AE0584D1435A942B5
:1010A00006D0564A2832914201D11A4600E0224623
:1010B0004B4908394A60C16A71E04FF0020808FAEA
:1010C00004F818EA020F70D05FEA83786DD50A68D9
:1010D000920606D40A6822F00A020A60012180F80A
:1010E0002110DFF810814FF40072016808F1140834
:1010F00013011402414524D9A9420DD0B1420FD0A9
:10110000B9421AD0614515D0494515D0514501D194
:10111000120312E0594501D102220EE0714501D1BE
:1011200020220AE0354D1435A94206D0334A283230
:10113000914201D11A4600E022462F49091F0A6058
:1011400029E0A94213D0B14215D0B94220D061455F
:101150001BD049451BD0514502D14FF4001217E076
:10116000414502D14FF0007212E0594501D10222EF
:101170000EE0714501D120220AE0204D1435A9422C
:1011800006D01E4A2832914201D11A4600E022467A
:10119000134908394A60002180F82010816A00292B
:1011A0001CD0BDE8F05F0847FFE70825A5401542C1
:1011B00014D01A0712D50A6822F00E020A6090F8BD
:1011C0004020C36B012101FA02F25A60816380F86A
:1011D0002110002180F82010016BE0E7BDE8F09FAE
:1011E000080002401C00024030000240440002405F
:1011F000580002406C000240080402401C040240F7
:1012000030B560B11A4B026814219A4209D2194BC9
:101210001344B3FBF1F18900016417490AE001208E
:1012200030BD134B5B421344B3FBF1F18900016401
:101230000F490839C163022180F82110136843F671
:10124000F0718B43F0E901142143D0E902452C43AE
:10125000214304692143446921438469214319439B
:10126000116000214163012242770177084630BDB9
:1012700008040240F8FFFDBF0000024070B50446BC
:1012800090F82000002501280CD0012084F82000CF
:1012900094F821600020012E06D084F82000022559
:1012A000284670BD022070BD022684F82160A0632C
:1012B0002068066826F0010606602046FFF724FB3A
:1012C000E06A00282068016802D041F00E0106E0C3
:1012D00021F0040101602068016841F00A01016009
:1012E0002068016841F001010160D9E72DE9F84F5C
:1012F000DFF8B8A100220AF1040B144601274FF0D1
:101300000F090BF1040E00BF0B6807FA04F52B4020
:10131000AB4274D1DFF898C14E68A6EB0C08664565
:101320002BD00DDC032E34D005DC36B3012E19D0C2
:10133000022E2FD11BE0112E16D0122E2AD119E029
:10134000B8F5881F19D006DCB8F5803F15D0B8F580
:10135000801F1FD111E0B8F5001F0ED0B8F5041F93
:1013600018D10AE0CA6815E0CA68121D12E0CA68FE
:1013700008320FE0CA680C320CE08A682AB1012AF0
:101380004FF0080203D0456104E0042202E0056149
:1013900000E00022FF2B01D8064601E000F1040620
:1013A0004FEA840501D9A5F12005D6F800C009FA55
:1013B00005F82CEA080C02FA05F54CEA050CC6F80B
:1013C00000C04D68ED006AD53A4DAE6946F00106A1
:1013D000AE61AD6924F0030605F001050095364DB8
:1013E00006EB050CDCF80850A6074FEA167809FA58
:1013F00008F6B543314EB04202D100261AE04EE065
:101400002F4EB04201D1012614E02E4EB04201D140
:1014100002260FE02C4EB04201D103260AE02B4EEB
:10142000B04201D1042605E0294EB04201D1052683
:1014300000E0062606FA08F62E43CCF808604D6850
:10144000DAF80060ED03554601D51E4300E09E43E7
:101450002E604D68AD0305D5DBF800601E43CBF868
:10146000006004E0DBF800509D43CBF800504D686D
:10147000DEF80060ED02754601D51E4300E09E4394
:101480002E604D68AD0205D5084D0C352E681E4303
:101490002E6004E0054E0C3635689D433560641CB3
:1014A000102CFFF431AFBDE8F88F000000040140BC
:1014B000000011100010024000000140000801402F
:1014C000000C0140001001400014014000180140D0
:1014D000001C01408068084000D001207047C268AD
:1014E0004A40C26070470AB1016170470904FBE7D6
:1014F000014880687047000038000020704770473E
:101500002DE9F05F02680446D2F8188055695668E4
:1015100090F83E007449DFF8D0A1DFF8CCB1DFF8D5
:10152000CC918F1C0AF17E0A0BF13E0B102812D0D1
:10153000402810D00D425BD0B00559D593692046A4
:101540000021DB435B0700D501219269D2431206DB
:1015500048D5828947E015F0011F05D0B00503D5B5
:10156000204601F06EFC10E05F48801D054205D06A
:10157000B00503D5606CC0B2106106E00D4204D026
:10158000B00502D5204601F0CFFB18EA090F14D0B0
:1015900015EA0A0F08D0700506D53D4206D120464F
:1015A000BDE8F05F01F03CBB3D421FD0B0051DD54A
:1015B0002046BDE8F05F01F0F2BA15EA0B0F08D043
:1015C000700506D53D4206D12046BDE8F05F01F02A
:1015D0008FBA3D420AD0B00508D52046BDE8F05F7D
:1015E00001F022BA028B92B2FFF789FFBDE8F09FAB
:1015F0003D480E30054206D0B00504D52046BDE872
:10160000F05F01F04BBC18EA090F4FF0280134D00D
:1016100015EA0A0F23D0700521D53D4221D194F857
:101620003D302046628D002AE0D0426A541C44625C
:10163000046812782261428D521E4285428D002A32
:10164000D4D1292BD2D10268536823F4806353602C
:101650002122026380F83D1000F033F9C6E73D42D5
:10166000C4D0B005C2D5608D0028BFD0606A411CCF
:10167000616221680078086131E015EA0B0F22D021
:10168000700520D53D4220D194F83D302046648D30
:10169000002CABD01469426A551C45621470428D0F
:1016A000521E4285428D002AA0D12A2B9ED102686B
:1016B000536823F4806353602222026380F83D1054
:1016C00000F0FEF892E73D4290D0B0058ED5608DD7
:1016D00000288BD01169606A421C62620170608DC3
:1016E000401E608582E70000020001000400100037
:1016F0007047000070B504001BD094F83D00002531
:1017000020B984F83C50204600F09AF8242084F850
:101710003D002068016821F00101016000F094FAA9
:10172000404A6168914201D83F4900E03F49884200
:1017300001D2012070BD3E492368B0FBF1F1596030
:101740006368934206D94FF4967359434FF47A7302
:10175000B1FBF3F12368491C19626168914210D80A
:101760004900401EB0FBF1F2521CC2F30B02042AE6
:1017700001D2042022E0B0FBF1F0401CC0F30B00CA
:101780001CE0A368CBB301EBC10202EB0116421EC1
:10179000B2FBF6F2521C42F48042120536D06BB313
:1017A00001EBC10202EB0111401EB0FBF1F0401C45
:1017B000C0F30B0040F4804040F400402168C86151
:1017C000D4E90701084321680860D4E903100843FD
:1017D00021688860D4E9050108432168C860206851
:1017E000016841F0010101602564202084F83D007A
:1017F000256384F83E50002070BD00E008E001EB56
:101800004106421EB2FBF6F2521CC6E70120D5E7A4
:1018100001EB4101401EB0FBF1F0401CC0F30B0096
:10182000CAE70000A086010080841E0000093D0078
:1018300040420F0070477047704770477047000084
:1018400010B586B0002100910191029103910068CA
:10185000174988422AD1174CA06940F00800A061BE
:10186000A069694600F0080004904FF440700090B1
:1018700012200190032003900F48FFF737FD0F4817
:10188000416841F0E06141F002014160E06940F4EB
:101890000010E061E069002200F4001004900321D0
:1018A0001F2000F073F81F2000F064F806B010BD90
:1018B0000054004000100240000C014000000140B4
:1018C0007047704702488168027811448160704710
:1018D00038000020074810B5016841F01001016090
:1018E000032000F073F8002000F006F800F024F860
:1018F000002010BD0020024070B50D4D04464FF48D
:101900007A712878B1FBF0F00A490968B1FBF0F070
:1019100000F072FB48B9102C07D200222146501E5D
:1019200000F034F800206C6070BD012070BD000034
:1019300038000020440000200C4808B5816941F0BF
:1019400001018161816901F001010091C16941F0EA
:101950008051C161C06900F0805000900448416826
:1019600021F0E06141F00071416008BD00100240CB
:101970000000014000F01F02012191404009800059
:1019800000F1E020C0F8001170470000F0B40E4BE9
:101990001B680C46C3F30223C3F10705042D00D9CD
:1019A0000425191D072901D2002300E0DB1E0126B2
:1019B00006FA05F1491E214099409E40761E1640C8
:1019C0003143F0BC02F08FBB0CED00E0064900F0A3
:1019D000070208684FF6FF03184040EA0220034A56
:1019E00010430860704700000CED00E00000FA05AD
:1019F0002DE9F84305460078354CC00754D0E0691E
:101A00000026C00008D4E06940F08050E061E06941
:101A1000012600F0805000902E480168C90512D4BC
:101A20000168804641F480710160FFF761FD07465F
:101A300005E000BFFFF75CFDC01B642823D8D8F881
:101A40000000C005F6D5206A10F4407021D0A988A6
:101A500001F4407181421CD0206A1F49012220F408
:101A600040700A6000220A602062C00711D0FFF7B0
:101A70003FFD074641F2883808E000BFFFF738FD18
:101A8000C11B414502D90320BDE8F883206A8007C5
:101A9000F4D5206A696820F44070084320621EB1C2
:101AA000E06920F08050E0612878800705D5606803
:101AB000A96820F44040084360602878C00605D536
:101AC0006068696920F48000084360600020DBE7FB
:101AD0000010024000700040400442422DE9F047EF
:101AE000DFF8548105460E46D8F8000000F00700E4
:101AF000B0420CD2D8F8001021F007013143C8F8E9
:101B00000010D8F8000000F00700B0426FD128683C
:101B10004A4C810712D5400703D5606840F4E06065
:101B200060602878000703D5606840F4605060600A
:101B30006068A96820F0F000084360602878C0075A
:101B400044D06868012816D02168022816D0890779
:101B500000294CDA616821F0030101436160FFF75D
:101B6000C7FC6968074641F2883001290ED0022976
:101B7000814618D026E021688903E9E78901E7E773
:101B8000FFF7B6FCC11B494501D918E081466068E2
:101B9000C0F381000128F3D118E000BFFFF7A8FCD3
:101BA000C11B49450BD86068C0F381000228F5D1FC
:101BB0000CE000BFFFF79CFCC11B494502D9032084
:101BC000BDE8F087606810F00C0FF3D1D8F8001072
:101BD000404601F00701B1420BD9016821F007012D
:101BE00031430160006800F00700B04201D00120DD
:101BF000E6E72878400705D56068E96820F4E060EA
:101C0000084360602878000706D56068296920F4D9
:101C1000605040EAC100606000F036F86168084A30
:101C2000C1F30311515CC840064908600020FFF76A
:101C300063FE0020C4E700000020024000100240C4
:101C4000294D0008440000200448054900684968FF
:101C5000044AC1F30221515CC8407047440000208F
:101C600000100240394D00080448054900684968E1
:101C7000044AC1F3C221515CC840704744000020AF
:101C800000100240394D000812A185B00FC98DE83F
:101C90000F0014A0144A006804905168134801F022
:101CA0000C03042B10D0082B0ED1C1F38343C903BE
:101CB0001DF803000AD5516804AAC1F34041515CE4
:101CC0000A4A5043B0FBF1F005B070470849484359
:101CD000FAE7000002030405060708090A0B0C0DC9
:101CE0000E0F1010010200000010024000127A00D6
:101CF00000093D002DE9F84F04460078B94DC007B2
:101D000048D06868C0F38100012807D06868C0F334
:101D10008100022809D16868C00306D528688003BD
:101D200038D5606800286FD034E06068B0F5803F37
:101D30000BD010B1B0F5A02F11D0286820F480305E
:101D40002860286820F4802002E0286840F4803071
:101D50002860606888B1FFF7CBFB064609E0286879
:101D600040F480202860F0E7FFF7C2FB801B642866
:101D700075D828688003F7D50CE0FFF7B9FB064655
:101D800005E000BFFFF7B4FB801B6428F0D828688B
:101D90008003F7D42078944E80074FF001094FF06C
:101DA00000083BD5686810F00C0F07D06868C0F3D6
:101DB0008100022809D16868C00306D4286880071A
:101DC00014D5206901281FD110E02069B0B1C6F8F0
:101DD0000090FFF78DFB074605E000BFFFF788FB8B
:101DE000C01B0228C4D828688007F7D52868616915
:101DF00020F0F80040EAC10028600FE0C6F800803B
:101E0000FFF776FB074606E0E9E000BFFFF770FB4F
:101E1000C01B022823D828688007F7D42078000741
:101E20002CD57248A169D9B1C0F80090FFF760FBCA
:101E3000074604E0FFF75CFBC01B02280FD8686A66
:101E40008007F7D56A484FF4FA510068B0FBF1F00B
:101E5000009000BF0098411E0091FAD20EE080E091
:101E6000C0F80080FFF744FB074604E0FFF740FBA3
:101E7000C01B022875D8686A8007F7D4207840070D
:101E800060D5E8690027C00008D4E86940F08050B8
:101E9000E861E869012700F080500090554801682A
:101EA000C90513D40168834641F480710160FFF7CE
:101EB0001FFB824606E000BFFFF71AFBA0EB0A00FB
:101EC00064284ED8DBF80000C005F5D5E06801288D
:101ED0000AD008B1052813D0286A20F00100286232
:101EE000286A20F0040002E0286A40F0010028621D
:101EF000E06841F2883B98B1FFF7FAFA82460BE0BE
:101F0000286A40F004002862EEE700BFFFF7F0FA0D
:101F1000A0EB0A0159455AD8286A8007F6D50CE08B
:101F2000FFF7E6FA824605E0FFF7E2FAA0EB0A01C6
:101F300059454CD8286A8007F6D41FB1E86920F0CB
:101F40008050E861E06988B36968C1F381010229C2
:101F500045D00228C6F8608004D0FFF7C9FA0446CD
:101F600038E034E0FFF7C4FA074604E0FFF7C0FAB0
:101F7000C01B02282BD828688001F7D4206AB0F54E
:101F8000803F05D16868A16820F40030084368608C
:101F9000D4E908010843696821F4741108436860B2
:101FA000C6F86090FFF7A4FA044606E015E000BF0B
:101FB000FFF79EFA001B022809D828688001F7D590
:101FC0000BE000BFFFF794FA001B022802D90320A0
:101FD000BDE8F88F28688001F4D40020F8E70120DC
:101FE000F6E7000000100240000042428004424236
:101FF000440000200070004010B5401EB0F1807F0A
:1020000001D3012010BD4FF0E02460610F21601763
:1020100002F069F80020A06107202061002010BDB7
:1020200010B590F83C20012A25D0012280F83C20F0
:10203000CA688C6822F4407222434C6822F48062A1
:1020400022430C6822F4006222430C6922F480527D
:1020500022434C6922F4005222438C6922F48042CC
:10206000224322F40041026800232143516480F896
:102070003C30002010BD022010BD30B590F83C204F
:10208000012A20D0012280F83C20022380F83D3034
:1020900003685C6824F070045C6003685C680D6829
:1020A0002C435C6003689C6824F080049C60036897
:1020B0009C6849680C439C6080F83D20002180F8B2
:1020C0003C10084630BD022030BD10B5040003D0DE
:1020D00094F83D0010B107E0012010BD002084F805
:1020E0003C00204600F00CF8022084F83D00211D41
:1020F000206802F07FF8012084F83D00002010BD28
:1021000008B501681148B1F1804F0BD0104A9142D7
:1021100010D1C16941F01001C161C06900F0100027
:10212000009008BDC16941F00101C161C06900F0C2
:102130000100F5E7074A9142F3D1816941F400516A
:102140008161806900F40050EAE70000001002405D
:10215000001000400034014070B5044690F83C0087
:10216000012817D0012584F83C50022084F83D0056
:102170002068826822F0770222F47F428260086839
:10218000502837D00DDC202859D005DC88B3102822
:1021900041D151E0022070BD302853D040283AD1BF
:1021A0003FE060282ED070280BD0B0F5805F03D0C0
:1021B000B0F5005F2FD110E02068816821F00701A1
:1021C00015E0CB68D1E90121206802F064F82168AC
:1021D000886840F0770088601DE0CB68D1E9012174
:1021E000206802F058F82068816841F480418160DD
:1021F00011E01EE0CA684968206802F021F9502108
:10220000206806E0CA684968206802F02AF960215F
:10221000206802F04AF884F83D50002084F83C0021
:1022200070BDCA684968206802F00AF94021206838
:10223000EFE700212068ECE710212068E9E7202182
:102240002068E6E730212068E3E72DE9F0410D46FC
:10225000040003D094F83D0018B108E00120BDE867
:10226000F081002084F83C00204600F039F802207C
:1022700084F83D002068816821F007018160211DFC
:10228000206801F0B7FF226890689169166A2B6890
:10229000AF69034340F20330814341EA0721A86854
:1022A000EF6908434FF6FC418843E96840EA07209C
:1022B000014328692F6A000140EA07300843696832
:1022C0006D6926F0AA0646EA05152943936022683F
:1022D000906120680162012084F83D000020BEE783
:1022E00000B585B0002100910191029103912B4B23
:1022F00002682B492B489A421FD1CA6942F0020258
:10230000CA61CA6902F0020204928A6942F00802B4
:102310008A61896901F008010491302100916946C0
:10232000FEF7E4FF2048416821F4406141F0E0619C
:1023300041F40061416005B000BD1C4B9A4213D1CD
:10234000CA6942F00402CA61CA6902F00402049236
:102350008A6942F008028A61896901F008010491E2
:10236000C0210091694616E011488242E3D1C86954
:1023700040F00800C861C86900F00800049088694E
:1023800040F0040088618869694600F00400049008
:10239000032000900748FEF7A9FFCCE700040040A7
:1023A00000100240000C0140000001400008004005
:1023B000000C00400008014010B50446006891B1CF
:1023C000042904D00122002101F05AFF20680122D3
:1023D0005FF0040101F054FF2068016841F0010141
:1023E0000160002010BD01220021F3E700B585B097
:1023F0000021009101910291039102681A48022183
:10240000B2F1804F15D0194B9A4210D1826942F037
:10241000100282618069039100F0100004904FF473
:102420007070CDE9000169461148FEF75FFF05B005
:1024300000BD826942F0080282618069039100F068
:10244000080004904FF48060CDE900016946094816
:10245000FEF74CFF0848416821F4407141F0E0610B
:1024600041F400714160E2E7001002400034014095
:1024700000100140000C01400000014070B504460E
:1024800090F83C000D4601280DD0012684F83C60F0
:10249000022084F83D0042B1042A18D0082A2AD02C
:1024A0000C2A4DD139E0022070BD206801F006FFF2
:1024B0002068816941F0080181612068816921F00B
:1024C00004018161206881692A69114311E0206853
:1024D00001F024FF2068816941F400618161206876
:1024E000816921F480618161206881692A6941EAFA
:1024F0000221816124E0206801F046FF2068C16963
:1025000041F00801C1612068C16921F00401C16185
:102510002068C1692A69114311E0206801F068FF51
:102520002068C16941F40061C1612068C16921F47A
:102530008061C1612068C1692A6941EA0221C161E3
:1025400084F83D60002084F83C0070BD10B50400A4
:1025500003D094F83D0010B107E0012010BD002029
:1025600084F83C00204600F00CF8022084F83D007E
:10257000211D206801F03EFE012084F83D0000206E
:1025800010BD70477047000070B5026804461068BF
:10259000D168536910F00F0F50D003F0010501F41A
:1025A000907635435DD0C20705D0CA0503D5E26BEE
:1025B00042F00102E263420705D5DA0703D0E26B7D
:1025C00042F00202E263820705D5DA0703D0E26B2C
:1025D00042F00402E263020705D5DA0703D0E26B9A
:1025E00042F00802E263E26B002A33D0800604D591
:1025F000880602D5204601F0ADFF20684069E16BF6
:10260000C0F38010090700D428B3204601F08BFFE7
:102610002068416949061AD5416921F040014161AC
:10262000606BA0B11B494163606BFEF72DFC002875
:1026300010D0606B416BBDE870400847830610D531
:102640008B060ED52046BDE8704001F083BF2046C2
:10265000FFF798FF70BD2046FFF794FF0020E0636E
:1026600070BD030606D50B0604D52046BDE87040B4
:1026700002F074B84006F3D54806F1D5D16820467B
:1026800021F04001D160202184F8391000F009F9CF
:1026900070BD00008744000870B5040004D094F8B1
:1026A0003900002510B106E0012070BD84F83850D3
:1026B000204600F023F8242084F839002068C168FF
:1026C00021F40051C160204601F090FF20680169AB
:1026D00021F4904101612068416921F02A014161A2
:1026E0002068C16841F40051C160E563202084F88E
:1026F000390084F83A00002070BD0000F0B585B0C4
:1027000000240646009401940294039400682B4927
:10271000884251D12A48C16941F40031C161C1697F
:1027200001F400310491816941F004018161806903
:10273000244D00F004000490042000900220019039
:102740000320039069462846FEF7D0FD0820CDE916
:102750000004694628460294FEF7C8FD1B4D1A483E
:102760008027C5E90004C5E902472C616C61AC61B2
:102770002846EC61FEF744FD08B1FEF71FF97563CA
:102780006E621148124D143001C5102091C51048D9
:1027900045F810496C61AC61EC61FEF731FD08B1A0
:1027A000FEF70CF935630022114626206E62FFF712
:1027B000EDF82620FFF7DEF805B0F0BD004400403C
:1027C00000100240000801406C0002404803002055
:1027D0008C030020F8B5044690F83A0020283CD13C
:1027E000C1B3BAB394F83800012836D0012084F878
:1027F0003800A162A2850025E563222084F83A0012
:10280000636B17489862636B1648D862636B16480F
:102810001863606B134645630846666B2168024681
:102820003046091DFEF72AFD2068016841680091C5
:1028300084F83850C16841F48071C16020684169F2
:1028400041F0010141612068416941F0400141616D
:102850000020F8BDFFE70120FBE70220F9E70000B8
:10286000E14400081D450008974400080A498842D1
:102870000ED10A480178012903D0032908D1042187
:1028800005E00649491C0978312902D00021017070
:1028900070470221FBE7000008030020260000200B
:1028A00070477047FEE700000148FEF729BE0000B0
:1028B0003401002010B5406A01680A6822F4806281
:1028C0000A6000214185426B5163826B516390F82D
:1028D0003D302022602B80F83D2080F83E1007D04C
:1028E00001680A6822F001020A60FEF701FF10BDCC
:1028F000016401680A6822F001020A60FEF7FEFD29
:1029000010BD000070B590F83D100446002520264B
:10291000006829292DD02A292BD094F83D10602950
:1029200004D04168090501D484F83D60256384F82A
:102930003E50016821F4006101602068416809058A
:1029400037D5416821F400614160606B344990F8EB
:102950002120012A12D04163606BFEF795FA38B34B
:102960002068016821F00101016084F83D60606B1E
:102970001CE02563282184F83D10DAE7A06B416351
:10298000A06BFEF781FA98B120684169C9434906F6
:1029900004D40169606A421C6262017020680168A7
:1029A00021F00101016084F83D60A06B416B884714
:1029B0000FE094F83D1060291DD04169C9434906D4
:1029C00004D40169606A421C626201702046FEF70D
:1029D0008FFE94F83D0028280CD1206C400709D5C3
:1029E0001048E062256384F83D6084F83E5020463C
:1029F000FEF720FF70BD84F83D6025644169C9433E
:102A0000490604D40169606A421C62620170206850
:102A1000016821F0010101602046FEF76FFDD8E753
:102A2000B52800080000FFFF10B5C26A448D2F4B87
:102A30000168032C03D0448D022C15D00AE0042A2F
:102A400003D0082A01D09A4203D10A6822F4806296
:102A50000A6001680A69416A4B1C43620A70418D31
:102A6000491E4185002010BD042A12D0082A10D02A
:102A70009A420ED0022A0A6802D022F4806201E053
:102A800042F480620A6001684A6822F440724A6037
:102A900008E04A6822F440724A6001680A6842F419
:102AA00000720A6001680A69416A4B1C43620A703D
:102AB000418D491E418501680A69416A4B1C436288
:102AC0000A70418D491E4185202180F83D1000216A
:102AD000016390F83E2080F83E10402A02D0FEF7B5
:102AE000AAFEBFE7FEF7A9FEBCE700000000FFFF5B
:102AF00010B590F83D1022294CD1418D032909D9F8
:102B000001680A69416A4B1C43620A70418D491E83
:102B100041853FE0022909D0032907D0C16A022973
:102B200001680A6818D022F4806217E0C16A02299D
:102B300001680A6807D022F480620A6001680A68A6
:102B400042F4006201E042F480620A600068416879
:102B500021F4806141601DE042F480620A600168F6
:102B60004A6822F4E0624A6001680A69416A4B1CC3
:102B700043620A70418D491E4185202180F83D1035
:102B80000021016390F83E2080F83E10402A03D0D7
:102B9000FEF751FE002010BDFEF74FFEFAE710B51C
:102BA000C26A90F83D10212921D1418D49B1416A75
:102BB0004A1C4262026809781161418D491E4185B3
:102BC00015E020230021042A13D0082A11D012F581
:102BD000803F0ED00268546824F4E06454601122EF
:102BE000026380F83E1080F83D30FEF725FE00209D
:102BF00010BD0268546824F4E064546002681468EC
:102C000044F400741460016380F83D3090F83E2075
:102C100080F83E10402AE8D1FEF710FEE7E70000FA
:102C200010B590F83D1090F83E30C26A048D24B182
:102C3000212934D0402B30D074E02129FAD120232F
:102C40000021042A13D0082A11D012F5803F0ED09B
:102C50000268546824F4E06454601122026380F82E
:102C60003E1080F83D3000BFFEF7E6FD5AE00268F6
:102C7000546824F4E06454600268146844F40074F6
:102C80001460016380F83D3090F83E2080F83E10DB
:102C9000402AE9D1FEF7D2FD44E0222942D1418DFC
:102CA00021B190F83E10402906D032E0006841681A
:102CB00021F48061416035E0016D31B1016D012980
:102CC00011D0016D022915D02CE0C16C0129816C55
:102CD00002D0C1F3072108E00268C9B21161016D99
:102CE000891C01651EE0816CC9B202681161016D29
:102CF000491CF6E790F83D10222904D090F83D10C9
:102D0000212906D00EE00068016841F4807101605D
:102D100008E0416A4A1C4262026809781161418DEB
:102D2000491E4185002010BD78B590F83E50C26A1A
:102D3000046B90F83D6000230168222E06D1066DD9
:102D40000EB9402D02D0056D25B107E048698869AC
:102D500000901CE00569B5F5404F1AD0458D85B34C
:102D6000458D012D20D0428D022A4AD00A6842F4B6
:102D700080620A6001684A68120503D54A6842F415
:102D800080524A6001684A698969009103650020A0
:102D900078BD4A698A6900920A6842F480720A60C2
:102DA000016D491C0165F2E712F5803F0AD0042A43
:102DB00021D0082A1FD0122C1DD0C26A022A09D1A4
:102DC00014E00BE00A6822F480620A6001684A6835
:102DD000120503D50A6822F480620AE04A698A690A
:102DE00000920A6842F400720A60CFE70A6842F46F
:102DF00080620A60C6E70A6822F480620A6001689D
:102E0000ECE7C26A022A0A680BD042F400620A6048
:102E100001684A698A6900920A6822F480620A603D
:102E200006E042F480620A6001684A69896900919B
:102E300001684A681205A9D54A6842F480524A607E
:102E4000A4E790F83E10402909D00169B1F5804F00
:102E500010D0016D99B1016D012915D01CE0016DF3
:102E600019B9416C01F0FE0114E0416CC9B241F0A6
:102E700001010FE090F83D102129F6D1F1E7416CF6
:102E8000F02201F4407103E0416CF12201F4407141
:102E900042EAD111006801610020704738B590F80E
:102EA0003D2001684B6823F4E0634B600368002118
:102EB0005C6900941C6844F001041C6003681C6891
:102EC00024F480641C6003685C6824050BD590F8CA
:102ED0003D40222C2BD090F83D402A2C27D0446B2B
:102EE000246864684485448DE4B15C69E443640704
:102EF00007D41C69436A5D1C45621C70438D5B1ED0
:102F0000438503685C69E443640607D41C69436A2B
:102F10005D1C45621C70438D5B1E4385036C43F052
:102F200004030364036C23B1FFF7ECFC1FE0846B24
:102F3000D6E72023282A09D02A2A07D0292A05D013
:102F4000046B222C0CD0222A0AD010E0094AC2625B
:102F5000016380F83D3080F83E10FEF76BFC06E020
:102F6000016380F83D3080F83E10FEF7A9FC002098
:102F700038BD00000000FFFF044908B58A6902431C
:102F80008A6189690140009108BD0000001002407B
:102F9000F0B50A68C2F30F2595FAA5F2B2FA82F3EA
:102FA00069E001229A402A4264D0082B03D240F201
:102FB00001129A4006E0A3F108024FF00114944078
:102FC00044F0806292FAA2F700EB1264B7FA87F736
:102FD0004FEA870C0F27266807FA0CF7BE4392FAD0
:102FE000A2F7D1F804E0B7FA87F7BF000EFA07FEA0
:102FF00046EA0E0626600E69C7684FEA122C9CFA54
:10300000ACFCBCFA8CFC27EA122706FA0CF6374314
:10301000C7604E68012E01D0092E2BD192FAA2F77B
:10302000B7FA87F74FEA870C032707FA0CF72668E9
:10303000D1F808E0BE4392FAA2F7B7FA87F7BF00CB
:103040000EFA07FE92FAA2FC46EA0E06BCFA8CFCC7
:103050004FEA8C0E4FF0040C26600CFA0EFC92FA2C
:10306000A2F2B2FA82F2CF68920026EA0C069740EA
:103070003E4326605B1C35FA03F292D10120F0BD7D
:1030800030B591FAA1F400EB1160B4FA84F4A50014
:103090000F24AC4091FAA1F10368B1FA81F18900E3
:1030A000A3438A401343036030BD0A7B8B681A43F5
:1030B0004B6822F480621A430B6822F400621A43C0
:1030C000CB8922F480521A430B6922F400521A432E
:1030D0004B6922F480421A4322F4004119434164AF
:1030E00001207047F0B502681C4B1D4D1D4E1E4F50
:1030F0001E4C4FF0804C984209D0A04207D060454A
:1031000005D0A84203D0B04201D0B84205D1D1F8D1
:1031100004E022F0700242EA0E02984209D0A04276
:1031200007D0604505D0A84203D0B04201D0B842D4
:1031300003D1CD6822F440722A4302608A68C262D9
:103140000A888262984201D0A04201D1097C0163C1
:10315000416941F0010141610120F0BD002C0140B5
:103160000004004000080040000C00400034014012
:10317000012919D0042919D0102919D0402919D0B2
:10318000B1F5807F18D0B1F5806F17D006210C4AB9
:1031900018300B4B525CDB1D10445B5C0421026851
:1031A00099408A43026070470021F0E70121EEE771
:1031B0000221ECE70321EAE70421E8E70521E6E73D
:1031C0001B4D0008012919D0042919D0102919D044
:1031D000402919D0B1F5807F18D0B1F5806F17D094
:1031E00006210C4A18300B4B525CDB1D10445B5C13
:1031F0000821026899400A43026070470021F0E705
:103200000121EEE70221ECE70321EAE70421E8E7E8
:103210000521E6E71B4D0008F0B5002601236E4CA2
:103220006E4D012908D010293BD0B1F5807F73D0B5
:10323000B1F5805F6ED1A6E0016A21F00101016263
:10324000016A46688769D2F800C027F0730747EA29
:103250000C07D2F810C021F0020141EA0C01D2F8AB
:1032600004C021F0010141EA0C01A04201D0A842B2
:1032700012D1546921F0080141EA8401946821F0D7
:10328000040141EA8401956926F480742C43D569D0
:1032900024F4007444EA450646608761D2684263BC
:1032A0006FE0016A21F010010162066A41688769D6
:1032B000D2F800C027F4E64747EA0C27D2F810C03E
:1032C00026F0200646EA0C16D2F804C026F01006B6
:1032D00046EA0C16A04201D0A84213D1556926F047
:1032E000800444EA8514956824F0400444EA851675
:1032F000946921F4806141EA8401D46921F4006178
:1033000041EAC40141608761D168816361E003E003
:1033100000E01E463046F0BD016A21F48071016272
:10332000016A4668C769D2F800C027F0730747EA08
:103330000C07D2F810C021F4007141EA0C21D2F838
:1033400004C021F4807141EA0C21A04201D0A842BE
:1033500013D1546921F4006141EA8421946821F475
:10336000806141EA8421956926F4805444EA051479
:10337000D56924F4005444EA45164660C761D26812
:10338000C2630162C5E7016A21F480510162066AE5
:103390004168C769D2F800C027F4E64747EA0C271E
:1033A000D2F810C026F4005646EA0C36D2F804C013
:1033B00026F4805646EA0C36A04201D0A84204D139
:1033C000946921F4804141EA84114160C761D16868
:1033D000016406629DE70000002C014000340140BA
:1033E00010B5012916D0042916D0102916D040296D
:1033F00016D0B1F5807F15D0B1F5806F14D00623BB
:10340000016A0A4CE35C02249C40A1439A401143A8
:10341000016210BD0023F3E70123F1E70223EFE788
:103420000323EDE70423EBE70523E9E7144D000848
:1034300070B50A4C208800280FD0FEF759F80546D1
:10344000A068854209D304210548FEF748F8208882
:10345000401E208060682844A06070BD00000020ED
:10346000001401403EB500241048009401940294D9
:103470008460C4600C4944610160012505614FF41A
:1034800060214460C161FDF7D3FB00B1FEE7042079
:10349000CDE90005694602940448FDF7C1FA002809
:1034A00000D0FEE73EBD00000024014004010020E2
:1034B0002DE9F04F85B000246248009401940294F5
:1034C0000394816941F010018161816901F010016B
:1034D0000491816941F020018161816901F020013D
:1034E0000491816941F004018161816901F0040165
:1034F0000491816941F0080181618069DFF848A188
:1035000000F008000490002248F211015046FDF737
:10351000EAFF012204215046FDF7E5FF0122A02128
:103520004A48FDF7E0FFDFF828B141F20309002225
:1035300049465846FDF7D7FF002204214548FDF7CC
:10354000D2FF48F2100001254FF00308CDE9000535
:10355000CDE9024869465046FDF7C8FE052002261F
:10356000CDE90005CDE9024669465046FDF7BEFEAD
:10357000394F0096CDE9017469465046FDF7B6FE15
:103580004FF481608DE8310069465046FDF7AEFE8C
:10359000A020CDE90005CDE9024869462B48FDF79A
:1035A000A5FE4020CDE90004694628480294FDF7B5
:1035B0009DFECDF800900396CDE90154694658462A
:1035C000FDF794FE4FF00408CDF80080CDE90174BA
:1035D00069465846FDF78AFE280300901F48CDE94A
:1035E000010569461948FDF781FEE803CDE90007AA
:1035F000694602941548FDF779FECDF800800396E0
:10360000CDE9015469461348FDF770FE00220121FF
:103610000720FEF7BBF90720FEF7ACF900221146A0
:103620000820FEF7B3F90820FEF7A4F900220521CF
:103630002820FEF7ABF92820FEF79CF905B0BDE87D
:10364000F08F00000010024000100140000801400F
:10365000000C014000140140000031100000111066
:103660002DE9F04198B0142113A8FCF794FD202116
:103670006846FCF790FD18210DA8FCF78CFD14217D
:1036800008A8FCF788FD4FF40060FFF775FC0024E4
:1036900040F2E730CDE91440484D4FF00308ADF853
:1036A0004C8016948DF85C4013A92846FFF71AFD4C
:1036B000286840F080002860A86844F20701884329
:1036C000A86001212846FFF77DFD6020CDE90004B8
:1036D00002260294CDE90346AF15CDE905676A4697
:1036E000012128460797FFF797FD01212846FFF79C
:1036F0003FFD10212846FFF765FD019402940494D4
:103700006A46102128460594FFF786FD10212846B9
:10371000FFF72EFD39462846FFF754FD0194049625
:103720006A463946284605960294FFF775FD3946E4
:103730002846FFF71DFDAE1431462846FFF742FD2F
:103740000294019404946A46314628460794FFF790
:1037500063FD31462846FFF70BFD686820F07000D6
:103760006860A86820F08000A8608DF840400D9443
:103770000E940F94ADF842406814CDE911040DA9E0
:103780002846FFF792FC0820FFF7F6FB0420FFF71E
:10379000F3FB0B4808A909250B9481E8210109488E
:1037A000FFF7F6FB084808A90B9481E821010748B8
:1037B000FFF7EEFB18B0BDE8F0810000002C0140DF
:1037C000E000E004000C01400F000F04000801407D
:1037D00010B58EB000240794089409940A940B94B1
:1037E0001C2168460C94FCF7D6FC1D484FF0804124
:1037F00001604721C0E9011444F61F61C0E90314C8
:1038000080218161FEF761FC00B1FEE74FF480503A
:10381000079007A91248FEF79FFC00B1FEE7104889
:10382000FEF794FE00B1FEE70B940BA90C480C9434
:10383000FEF723FC00B1FEE76020009040F2DC5070
:10384000CDE901040822694605480494FEF716FEF6
:1038500000B1FEE70248FEF7C9FD0EB010BD000042
:103860008801002010B58CB024216846FCF793FC39
:1038700000241548099413490A94C0E900144FF62E
:10388000FF71C0E90241046184610320CDE90004B5
:103890000120CDE902040494CDE90540079469466E
:1038A00009480894FEF7D1FC00B1FEE7099409A984
:1038B00005480A94FEF7E1FB002800D0FEE70CB0B3
:1038C00010BD000000040040C801002010B58CB0FD
:1038D00024216846FCF75FFC00241548099413492D
:1038E0000A94C0E900144FF6FF71C0E90241046177
:1038F00084610320CDE900040120CDE90204049491
:10390000CDE905400794694609480894FEF79DFCF7
:1039100000B1FEE7099409A905480A94FEF7ADFB3A
:10392000002800D0FEE70CB010BD000000080040E9
:103930000802002010B58CB024216846FCF72BFC4F
:1039400000241548099413490A94C0E900144FF65D
:10395000FF71C0E90241046184610320CDE90004E4
:103960000120CDE902040494CDE90540079469469D
:1039700009480894FEF769FC00B1FEE7099409A91B
:1039800005480A94FEF779FB002800D0FEE70CB04A
:1039900010BD0000000C00404802002010B594B09B
:1039A00000240E940F941094119412941C216846D4
:1039B0001394FCF7F0FB1C2107A8FCF7ECFB314843
:1039C0002F4901604721C0E9011444F61F61C0E995
:1039D00003148021C0E90541FEF777FB00B1FEE743
:1039E0004FF480500E900EA92648FEF7B5FB00B1AB
:1039F000FEE72448FEF7AAFD00B1FEE7129412A9E3
:103A000020481394FEF739FB00B1FEE760200090D8
:103A100040F2DC50CDE901040394049405940022A3
:103A2000694618480694FEF729FD00B1FEE7042216
:103A300069461448FEF722FD00B1FEE708226946F8
:103A40001048FEF71BFD00B1FEE70C2269460D4849
:103A5000FEF714FD00B1FEE70794089409944FF4B3
:103A600000500A94CDE90B4007A906480D94FEF7D3
:103A7000D7FA00B1FEE70348FEF7B8FC14B010BD5A
:103A800000340140C8020020FEE700002DE9F003E9
:103A90000025DFF84090DDF818C02E464FF47A7804
:103AA00005EB850401EBC4046D1C676826611434C2
:103AB000EDB2A4E80C10042D44E90676C4E90089AF
:103AC000EED30221C17001218170BDE8F00300F046
:103AD000E5BF000000409C4670B5194D04464FF408
:103AE00080502861184E092216493046FFF7C8FA5F
:103AF000092216493046FFF7C3FA09221449304615
:103B0000FFF7BEFA092213493046FFF7B9FA092236
:103B100011492846FFF7B4FA092210492846FFF751
:103B2000AFFA09220E492846FFF7AAFA0D48416C60
:103B300021F40041416400202070607070BD0000DD
:103B4000000C0140010001040008014002000204D1
:103B5000040004040800080420002004400040047D
:103B600080008004002C01402DE9F04F06460078CB
:103B700085B00F4600287BD0B078DFF804846C460F
:103B8000F0B3FDF7B5FCFF4981464A6890426FD318
:103B90000025FC494968A9EB0100F1780844FCF7CD
:103BA000EFFC05EB850A07EBCA048346D4E9010163
:103BB000401AFCF7DCFC5946FCF782FBFCF7FEFCE4
:103BC0000022F14BFCF761FC8346049157F83A0060
:103BD000FCF7CDFCFCF7F2FCEC4AED4BFCF755FC96
:103BE0005A46049BFCF74BFCFCF7FBFCDFF8A4B344
:103BF00001464BF825002069FCF7D8FA206100E067
:103C000005E0616AFCF70AFD7ED2616A71E17078B5
:103C100000282DD05FF0000000EB800157F8311034
:103C200044F82010401CC0B20428F5D34FF40055CE
:103C30000398EF10002800984FF4804A4FF4007B5F
:103C40004FF480797ADB002813DB02220421D2486A
:103C5000FFF7C6FBD248D149C0F814900122FFF704
:103C60000FFA0922CF494046FFF70AFA009815E0FB
:103C70003BE100220121C848FFF7B2FB4446C8F8E7
:103C800014500922C549C648FFF7FAF90122C5496F
:103C90002046FFF7F5F90098404200904FF47A74FF
:103CA000A04200DD2046BC4D0090686301980028CA
:103CB00014DB002210212846FFF792FBDFF8E8B260
:103CC000C8F814A00922B949B548FFF7D9F901226B
:103CD00059464046FFF7D4F9019813E002224021EB
:103CE0002846FFF77DFBAE48B049C0F814B001226A
:103CF000FFF7C6F90922AC494046FFF7C1F9019820
:103D000040420190A04200E0F2E000DD2046019038
:103D1000A8630298002812DB022239462846FFF7E2
:103D20005FFB9F48A24947610122FFF7A9F90922D9
:103D3000A0494046FFF7A4F9029819E02DE00022BF
:103D400049462846FFF74CFBDFF868924FF40040E5
:103D50004746C8F81400092295499148FFF790F9A1
:103D6000012249463846FFF78BF9029840420290FB
:103D7000A04200DD2046014602902846E9634FF448
:103D80008051C8F814100022FFF72AFB0398A042C4
:103D900000DC044603942C64A5E0002813DB022217
:103DA00001217D48FFF71CFB4446C8F8105009224A
:103DB0007A497B48FFF764F901227A492046FFF7E8
:103DC0005FF9009813E0002204217348FFF708FB15
:103DD00073487249C0F810900122FFF751F9092287
:103DE00070494046FFF74CF90098404200904FF46C
:103DF0007A75A84200DD2846674C00906063019800
:103E0000002812DB002240212046FFF7E9FA64482F
:103E10006649C0F810B00122FFF732F90922624961
:103E20004046FFF72DF9019815E0022210212046A7
:103E3000FFF7D6FADFF870B1C8F810A009225B4985
:103E40005748FFF71DF9012259464046FFF718F978
:103E5000019840420190A84200DD28460190A063ED
:103E60000298002817DB022249462046FFF7B8FADD
:103E7000DFF840914FF400404746C8F8100009228F
:103E80004B494748FFF7FCF8012249463846FFF7FF
:103E9000F7F8029812E0002239462046FFF7A0FA10
:103EA0003F48434907610122FFF7EAF809224149E7
:103EB0004046FFF7E5F8029840420290A84200DD34
:103EC0002846014602902046E1634FF48051C8F82D
:103ED00010100222FFF784FA0398A84200DC05467E
:103EE0006842039520640020707005B0BDE8F08F33
:103EF00021692161606A80F00040FCF78FFB03D2EA
:103F0000606A80F0004000E02069206182466068BD
:103F1000A0605BF82500E1680490FCF799F9E1697D
:103F2000FCF79CF983465046A169FCF797F9824655
:103F300061690498FCF792F95146FCF737F9594644
:103F4000FCF734F9FCF721FB4DF825000498E060FC
:103F50005DF82520206A6946824200DC104641F85F
:103F60002500226A5242904200DA104641F82500AC
:103F70006D1CEDB2042DFFF40CAEF17849441BE04A
:103F8000000C01400C00002000408F40A4703D0A4E
:103F9000D7A3084048000020002C01400100010484
:103FA00000080140200020044000400402000204F8
:103FB0000400040480008004414841600098002807
:103FC0000BDB01223F494048FFF75AF809223F49DD
:103FD0004046FFF755F800980CE0092239493A4865
:103FE000FFF74EF8012239494046FFF749F800989B
:103FF000404200904FF47A75A84200DD2846344CC8
:1040000000906063019800280BDB092231492E489B
:10401000FFF736F8012230494046FFF731F80198A2
:104020000CE001222B492848FFF72AF809222A49E7
:104030004046FFF725F8019840420190A84200DD74
:1040400028460190A063029800280BDB0122234937
:104050001D48FFF715F8092221494046FFF710F8DF
:1040600002980CE009221D491748FFF709F80122C0
:104070001B494046FFF704F8029840420290A842CC
:1040800000DD28460290E06303984FF48051002839
:10409000404606DB416100222046FFF7A1F9039864
:1040A00007E0016102222046FFF79AF90398404297
:1040B0000390A84200DC05460395256415E700003F
:1040C0000C00002001000104000801402000200431
:1040D000002C0140020002044000400404000404DB
:1040E0008000800470470907090E002806DA00F0F6
:1040F0000F0000F1E02080F8141D704700F1E0206F
:1041000080F800147047704770470000054B042288
:104110005A614FF6FF7202EA4002034849080280E2
:10412000416070470014014000000020FDF7CABB49
:1041300030B595B028216846FCF72DF814210AA85F
:10414000FCF729F818210FA8FCF725F80920012110
:1041500000904FF48030002504910691CDE90105CF
:104160000224CDE907404FF4E01009906846FDF7BE
:10417000C1FD00B1FEE70AA90F2081E831004FF42C
:104180008060CDE90D0502210AA8FDF7A7FC00B16A
:10419000FEE74FF4004011900F940FA8FDF728FCA4
:1041A000002800D0FEE715B030BD00000D480168C2
:1041B00041F00101016041680B4A11404160016812
:1041C0000A4A11400160016821F4802101604168C0
:1041D00021F4FE0141604FF41F0181600449C003D6
:1041E00008607047001002400000FFF8FFFFF6FE75
:1041F00008ED00E0F0B502681C4B1D4D1D4E1E4F32
:104200001E4C4FF0804C984209D0A04207D0604528
:1042100005D0A84203D0B04201D0B84204D122F068
:10422000700E4A6842EA0E02984209D0A04207D0B6
:10423000604505D0A84203D0B04201D0B84203D1B6
:1042400022F44075CA682A4322F080054A692A434D
:1042500002608A68C2620A688262984201D0A04203
:1042600001D10969016301214161F0BD002C0140C8
:104270000004004000080040000C004000340140F1
:1042800010B50123046A8B409C430462036A8A4090
:104290001343036210BD10B5846842EA032224F47C
:1042A0007F440A432243826010BD826822F070027C
:1042B0000A4342F00701816070470000F0B5026ACE
:1042C00022F001020262036A42688469124E24F0FD
:1042D00073050C682C4323F002058B682B430D4DAE
:1042E000A84201D0B04205D123F00807CB683B4378
:1042F00023F00403A84201D0B04205D14D6922F455
:10430000407215438A692A43426084614968416367
:104310000362F0BD002C014000340140F0B5026A98
:1043200022F010020262026A436884690D6824F474
:10433000E64444EA05248D6822F0200242EA051290
:104340000F4D104EA84201D0B04206D1CF6822F0E6
:10435000800242EA071222F04002A84201D0B04295
:1043600007D14D6923F4406343EA85038D6943EA2D
:10437000850343608461496881630262F0BD000087
:10438000002C014000340140F0B5026A22F4807232
:104390000262026A4368C46922F4007224F0730561
:1043A0000C68124E2C438D6842EA05220E4DA8423D
:1043B00001D0B04206D1CF6822F4006242EA07225F
:1043C00022F48062A84201D0B04207D14D6923F4A3
:1043D000405343EA05138D6943EA05134360C46102
:1043E0004968C1630262F0BD002C01400034014005
:1043F00030B5026A22F480520262046A4268C369DC
:104400000D6823F4E64343EA05238D6824F4005441
:1044100044EA0534084DA84202D0084DA84204D110
:104420004D6922F4804242EA85124260C3614968C4
:104430000164046230BD0000002C014000340140E2
:1044400010B5036A046A24F001040462846924F04C
:10445000F00444EA021423F00A020A43846102626F
:1044600010BD10B5036A23F0100303628369046A68
:1044700023F4704343EA023224F0A00343EA01111B
:104480008261016210BD10B5406A0021C185C184FE
:10449000FEF778F810BD70B5446A2068406994F85A
:1044A0003910C0F3C0100025212904D118B1E584CA
:1044B000204600F046F82068406994F83A10C0F3AE
:1044C0008010222904D118B1E585204600F02BF890
:1044D000E06B40F01000E0632046FEF753F870BD3B
:1044E00010B50146406A09680968890613D400219D
:1044F000C1850168CA6822F48072CA6001684A698D
:1045000022F001024A6101684A6922F040024A61D0
:10451000202180F83A10FEF7A9F910BD10B5406AC5
:10452000FEF7BEF910BD0168CA6822F49072CA6035
:1045300001684A6922F001024A61202180F83A109C
:1045400070470168CA6822F0C002CA60202180F862
:104550003910704710B590F83A10222901D0022086
:1045600010BD8168B1F5805F11D001690029016833
:104570001FD0496801F07F03816A4A1C82620B7078
:10458000C18D491E0904090CC18518D02BE00269B0
:10459000816A002A0268526805D0D2B20A80816A14
:1045A000491C8162ECE7C2F308020A80816A891C17
:1045B000F7E74A68816A4B1C83620A70E0E701688A
:1045C000CA6822F02002CA600168CA6822F48072B8
:1045D000CA6001684A6922F001024A61202180F81C
:1045E0003A10FEF743F9002010BD00002DE9F0411C
:1045F000044600680169E26821F4405111430161F9
:104600002169A0680843616908432168CA6841F2CA
:104610000C639A430243CA6020684169A26921F48D
:104620004071114341614C4920686425322688421B
:104630003CD1FDF719FB00EBC00101EB00106168F4
:104640008900B0FBF1F7FDF70FFB00EBC00101EBB8
:1046500000106168B0468900B0FBF1F0B0FBF5F0E6
:104660006FF01801484307EB800106EB0110B0FB27
:10467000F5F000F0F006FDF7F7FA00EBC00101EBF2
:10468000001061688900B0FBF1F0B0FBF5F006EBBB
:104690000016FDF7E9FA00EBC00101EB00106168BC
:1046A0008900B0FBF1F7FDF7DFFA3BE0FDF7CCFA4C
:1046B00000EBC00101EB001061688900B0FBF1F76D
:1046C000FDF7C2FA00EBC00101EB00106168B046D3
:1046D0008900B0FBF1F0B0FBF5F06FF01801484332
:1046E00007EB800106EB0110B0FBF5F000F0F006DF
:1046F000FDF7AAFA00EBC00101EB00106168890028
:10470000B0FBF1F0B0FBF5F006EB0016FDF79CFAFC
:1047100000EBC00101EB001061688900B0FBF1F70C
:10472000FDF792FA00EBC00101EB0010616889000F
:10473000B0FBF1F0B0FBF5F06FF01801484307EB68
:10474000800108EB0110B0FBF5F0216800F00F00CC
:1047500030448860BDE8F0810038014090F839109D
:10476000212901D0022070478168B1F5805F016A7C
:104770000BD04A1C0262026809785160C18C491E44
:104780000904090CC1840ED017E009880268C1F33E
:104790000801516001690029016A02D0491C0162C7
:1047A000ECE7891CFBE70168CA6822F08002CA6056
:1047B0000068C16841F04001C160002070470000FE
:1047C0000148FDF7E1BE000008030020FEE702E01B
:1047D00008C8121F08C1002AFAD17047704700208C
:1047E00001E001C1121F002AFBD170472DE9F047FB
:1047F00090468A468288C1885442008965184B4297
:10480000404205441C442EB20444114425B20144E4
:104810000CB2D118084407B24FF47A70864205DA18
:10482000854203DA844201DA874234DB304685422E
:1048300000DD2846844200DD2046874200DD384600
:10484000FBF795FE01461A48FBF73AFD81463046D4
:10485000FBF78DFE4946FBF701FDFBF796FE06B21E
:104860002846FBF784FE4946FBF7F8FCFBF78DFE74
:1048700005B22046FBF77BFE4946FBF7EFFCFBF752
:1048800084FE04B23846FBF772FE4946FBF7E6FCAD
:10489000FBF77BFE07B2C8F85070C8F82860C8F86C
:1048A00000500121C8F878408AF80110BDE8F0876F
:1048B00000007A441CB500273E46FDF70BF8FFF7D1
:1048C00037FCFEF7F5FD6B48416941F0010141619C
:1048D0004069002200F00100009011461020FDF711
:1048E00055F81020FDF746F8002211461120FDF77B
:1048F0004DF81120FDF73EF8FFF71CF8FEF7B2FD6A
:10490000FEF7AEFE5D485C49002401605C49C0E9E9
:1049100001144FF48041C0E9034144618461C461E2
:104920000462FCF7E7FE00B1FEE7FEF7CFFFFEF7FB
:1049300099FF554800945349019401604721C0E90B
:1049400001144FF6FF718461C160FDF7BEFB00B139
:10495000FEE7009469464C480194FDF78EFB00B1D8
:10496000FEE7FEF735FFFFF719F847484749803063
:1049700001604FF41651C0E901140C21C460C0E974
:1049800004418461C461FDF787FE00B1FEE7642144
:104990000220FFF7BBFB00F081F93D494FF0010910
:1049A0003C4B81F8009035493B4ADC39384800944B
:1049B000FFF76CF8DFF8D880304D4FF42F7AA8F16C
:1049C0000408CAF1000B3C3D98F80000012809D00A
:1049D00002282AD1294A2E483C3AA2F1A00100F02F
:1049E000FBF822E0FCF784FDB8421ED936B1012E57
:1049F00007D0022E09D0032E0ED10AE0A5F804A09C
:104A000005E0AC80A5F806A006E0A5F804B0EC80AF
:104A100002E0AC80A5F806B0761C85F80A9006F096
:104A20000306FCF765FD00F57A77A87A38B1134ADA
:104A30001749DC3A02F1A000FFF7D8FEAC720F482C
:104A4000DC38FBF7BDFF0D491148DC39FFF78CF866
:104A50000F48801EFBF71AFF0028B5D00C48FFF75F
:104A60003BF83C2142F21070FFF750FBFEF7E0FCF0
:104A7000FCE7000000100240005400403401002018
:104A8000801A060000100040880200200044004008
:104A9000340000203855B83D90C2853F2DE9F05FC5
:104AA000424C206A40F001002062206A40F0100071
:104AB0002062206AA51540F480702062206AA61446
:104AC00040F480502062206A40F004002062206A96
:104AD00040F040002062206A271540F48060206288
:104AE000002201212046FEF77BFC002210212046F7
:104AF000FEF776FC002229462046FEF771FC0022D4
:104B000031462046FEF76CFC022204212046FEF7C7
:104B100067FC022240212046FEF762FC0222394651
:104B20002046FEF75DFC234C214965614814606115
:104B30006761214F80006061214DDFF88080800037
:104B40006861DFF8809040006861DFF87CB0400069
:104B50006861DFF878A06E6101222046FEF790FAC6
:104B600001221B492046FEF78BFA012219492046F3
:104B7000FEF786FA092239462046FEF781FA01221D
:104B800041462846FEF77CFA012249462846FEF7B0
:104B900077FA012259462846FEF772FA514628460E
:104BA000BDE8F05F0122FEF76BBA0000002C014067
:104BB000010001040008014008000804200020044E
:104BC000000C0140400040048000800410001004EC
:104BD00002000204040004042DE9F0412D4E0127D7
:104BE000711C307800251446052819D2DFE800F042
:104BF00003190C1914000D7026490122491C26487E
:104C0000FDF7E8FD37700CE007222348491CFDF74B
:104C1000E1FD0320307004E04878302810D0357072
:104C20003570FCF765FC21686431884206D3E58065
:104C3000A5802581A772FCF75BFC2060BDE8F081B0
:104C400014488B78401C802BC2786FF07F0000D214
:104C5000524202EB820200EB42021A44A2800A791D
:104C60004B79802A00D25B4203EB830300EB4303C2
:104C70001A44E2808A79C979802A00D2494201EB3C
:104C8000810100EB410010442081A772FCF730FC49
:104C90002060C5E72600002008030020194810B551
:104CA000416C41F400414164016841F0010101603F
:104CB000016A41F001010162016A41F010010162E3
:104CC000016A41F480710162016A41F4805101621C
:104CD000016A41F004010162016A41F04001016290
:104CE000016A41F48061016218210748FDF764FB05
:104CF00018210648FDF760FBBDE810401821044864
:104D0000FDF75ABB002C0140C8010020080200201A
:104D10004802002000020406080A0C0000000004FB
:104D2000040400000800000008000000000000006B
:104D30000001020304060708090000000001020345
:104D400004000000644D000800000020480000003E
:104D5000CE470008AC4D000848000020880700003E
:104D6000DE470008000000006400000000000000B2
:104D70000000000000000000000000000000000033
:104D8000FF0FFF0FFF0FFF0FFF0F000000000000DD
:104D9000000000000200000000000002010000000E
:0C4DA000100000000000000000A24A0407
:0400000508000131BD
:00000001FF
